{
  "contractName": "Token",
  "abi": [
    {
      "inputs": [
        {
          "internalType": "string",
          "name": "_name",
          "type": "string"
        },
        {
          "internalType": "string",
          "name": "_symbol",
          "type": "string"
        }
      ],
      "stateMutability": "nonpayable",
      "type": "constructor"
    },
    {
      "anonymous": false,
      "inputs": [
        {
          "indexed": true,
          "internalType": "address",
          "name": "owner",
          "type": "address"
        },
        {
          "indexed": true,
          "internalType": "address",
          "name": "approved",
          "type": "address"
        },
        {
          "indexed": true,
          "internalType": "uint256",
          "name": "tokenId",
          "type": "uint256"
        }
      ],
      "name": "Approval",
      "type": "event"
    },
    {
      "anonymous": false,
      "inputs": [
        {
          "indexed": true,
          "internalType": "address",
          "name": "owner",
          "type": "address"
        },
        {
          "indexed": true,
          "internalType": "address",
          "name": "operator",
          "type": "address"
        },
        {
          "indexed": false,
          "internalType": "bool",
          "name": "approved",
          "type": "bool"
        }
      ],
      "name": "ApprovalForAll",
      "type": "event"
    },
    {
      "anonymous": false,
      "inputs": [
        {
          "indexed": false,
          "internalType": "address",
          "name": "owner",
          "type": "address"
        },
        {
          "indexed": false,
          "internalType": "uint256",
          "name": "id",
          "type": "uint256"
        }
      ],
      "name": "NFTminted",
      "type": "event"
    },
    {
      "anonymous": false,
      "inputs": [
        {
          "indexed": true,
          "internalType": "address",
          "name": "from",
          "type": "address"
        },
        {
          "indexed": true,
          "internalType": "address",
          "name": "to",
          "type": "address"
        },
        {
          "indexed": true,
          "internalType": "uint256",
          "name": "tokenId",
          "type": "uint256"
        }
      ],
      "name": "Transfer",
      "type": "event"
    },
    {
      "inputs": [
        {
          "internalType": "address",
          "name": "to",
          "type": "address"
        },
        {
          "internalType": "uint256",
          "name": "tokenId",
          "type": "uint256"
        }
      ],
      "name": "approve",
      "outputs": [],
      "stateMutability": "nonpayable",
      "type": "function"
    },
    {
      "inputs": [
        {
          "internalType": "address",
          "name": "owner",
          "type": "address"
        }
      ],
      "name": "balanceOf",
      "outputs": [
        {
          "internalType": "uint256",
          "name": "",
          "type": "uint256"
        }
      ],
      "stateMutability": "view",
      "type": "function",
      "constant": true
    },
    {
      "inputs": [
        {
          "internalType": "uint256",
          "name": "tokenId",
          "type": "uint256"
        }
      ],
      "name": "getApproved",
      "outputs": [
        {
          "internalType": "address",
          "name": "",
          "type": "address"
        }
      ],
      "stateMutability": "view",
      "type": "function",
      "constant": true
    },
    {
      "inputs": [
        {
          "internalType": "address",
          "name": "owner",
          "type": "address"
        },
        {
          "internalType": "address",
          "name": "operator",
          "type": "address"
        }
      ],
      "name": "isApprovedForAll",
      "outputs": [
        {
          "internalType": "bool",
          "name": "",
          "type": "bool"
        }
      ],
      "stateMutability": "view",
      "type": "function",
      "constant": true
    },
    {
      "inputs": [],
      "name": "name",
      "outputs": [
        {
          "internalType": "string",
          "name": "",
          "type": "string"
        }
      ],
      "stateMutability": "view",
      "type": "function",
      "constant": true
    },
    {
      "inputs": [
        {
          "internalType": "uint256",
          "name": "tokenId",
          "type": "uint256"
        }
      ],
      "name": "ownerOf",
      "outputs": [
        {
          "internalType": "address",
          "name": "",
          "type": "address"
        }
      ],
      "stateMutability": "view",
      "type": "function",
      "constant": true
    },
    {
      "inputs": [
        {
          "internalType": "address",
          "name": "from",
          "type": "address"
        },
        {
          "internalType": "address",
          "name": "to",
          "type": "address"
        },
        {
          "internalType": "uint256",
          "name": "tokenId",
          "type": "uint256"
        }
      ],
      "name": "safeTransferFrom",
      "outputs": [],
      "stateMutability": "nonpayable",
      "type": "function"
    },
    {
      "inputs": [
        {
          "internalType": "address",
          "name": "from",
          "type": "address"
        },
        {
          "internalType": "address",
          "name": "to",
          "type": "address"
        },
        {
          "internalType": "uint256",
          "name": "tokenId",
          "type": "uint256"
        },
        {
          "internalType": "bytes",
          "name": "_data",
          "type": "bytes"
        }
      ],
      "name": "safeTransferFrom",
      "outputs": [],
      "stateMutability": "nonpayable",
      "type": "function"
    },
    {
      "inputs": [
        {
          "internalType": "address",
          "name": "operator",
          "type": "address"
        },
        {
          "internalType": "bool",
          "name": "approved",
          "type": "bool"
        }
      ],
      "name": "setApprovalForAll",
      "outputs": [],
      "stateMutability": "nonpayable",
      "type": "function"
    },
    {
      "inputs": [
        {
          "internalType": "bytes4",
          "name": "interfaceId",
          "type": "bytes4"
        }
      ],
      "name": "supportsInterface",
      "outputs": [
        {
          "internalType": "bool",
          "name": "",
          "type": "bool"
        }
      ],
      "stateMutability": "view",
      "type": "function",
      "constant": true
    },
    {
      "inputs": [],
      "name": "symbol",
      "outputs": [
        {
          "internalType": "string",
          "name": "",
          "type": "string"
        }
      ],
      "stateMutability": "view",
      "type": "function",
      "constant": true
    },
    {
      "inputs": [],
      "name": "tokenIds",
      "outputs": [
        {
          "internalType": "uint256",
          "name": "_value",
          "type": "uint256"
        }
      ],
      "stateMutability": "view",
      "type": "function",
      "constant": true
    },
    {
      "inputs": [
        {
          "internalType": "uint256",
          "name": "tokenId",
          "type": "uint256"
        }
      ],
      "name": "tokenURI",
      "outputs": [
        {
          "internalType": "string",
          "name": "",
          "type": "string"
        }
      ],
      "stateMutability": "view",
      "type": "function",
      "constant": true
    },
    {
      "inputs": [
        {
          "internalType": "address",
          "name": "from",
          "type": "address"
        },
        {
          "internalType": "address",
          "name": "to",
          "type": "address"
        },
        {
          "internalType": "uint256",
          "name": "tokenId",
          "type": "uint256"
        }
      ],
      "name": "transferFrom",
      "outputs": [],
      "stateMutability": "nonpayable",
      "type": "function"
    },
    {
      "inputs": [
        {
          "internalType": "address",
          "name": "reciever",
          "type": "address"
        },
        {
          "internalType": "string",
          "name": "_tokenURI",
          "type": "string"
        }
      ],
      "name": "mintNft",
      "outputs": [],
      "stateMutability": "nonpayable",
      "type": "function"
    },
    {
      "inputs": [
        {
          "internalType": "address",
          "name": "_owner",
          "type": "address"
        }
      ],
      "name": "tokensofOwner",
      "outputs": [
        {
          "internalType": "uint256[]",
          "name": "",
          "type": "uint256[]"
        }
      ],
      "stateMutability": "view",
      "type": "function",
      "constant": true
    }
  ],
  "bytecode": "0x60806040523480156200001157600080fd5b5060405162002fed38038062002fed8339818101604052810190620000379190620001a3565b818181600090805190602001906200005192919062000075565b5080600190805190602001906200006a92919062000075565b5050505050620003ac565b8280546200008390620002bd565b90600052602060002090601f016020900481019282620000a75760008555620000f3565b82601f10620000c257805160ff1916838001178555620000f3565b82800160010185558215620000f3579182015b82811115620000f2578251825591602001919060010190620000d5565b5b50905062000102919062000106565b5090565b5b808211156200012157600081600090555060010162000107565b5090565b60006200013c620001368462000251565b62000228565b9050828152602081018484840111156200015b576200015a6200038c565b5b6200016884828562000287565b509392505050565b600082601f83011262000188576200018762000387565b5b81516200019a84826020860162000125565b91505092915050565b60008060408385031215620001bd57620001bc62000396565b5b600083015167ffffffffffffffff811115620001de57620001dd62000391565b5b620001ec8582860162000170565b925050602083015167ffffffffffffffff81111562000210576200020f62000391565b5b6200021e8582860162000170565b9150509250929050565b60006200023462000247565b9050620002428282620002f3565b919050565b6000604051905090565b600067ffffffffffffffff8211156200026f576200026e62000358565b5b6200027a826200039b565b9050602081019050919050565b60005b83811015620002a75780820151818401526020810190506200028a565b83811115620002b7576000848401525b50505050565b60006002820490506001821680620002d657607f821691505b60208210811415620002ed57620002ec62000329565b5b50919050565b620002fe826200039b565b810181811067ffffffffffffffff8211171562000320576200031f62000358565b5b80604052505050565b7f4e487b7100000000000000000000000000000000000000000000000000000000600052602260045260246000fd5b7f4e487b7100000000000000000000000000000000000000000000000000000000600052604160045260246000fd5b600080fd5b600080fd5b600080fd5b600080fd5b6000601f19601f8301169050919050565b612c3180620003bc6000396000f3fe608060405234801561001057600080fd5b50600436106101005760003560e01c80636352211e11610097578063a22cb46511610066578063a22cb465146102bf578063b88d4fde146102db578063c87b56dd146102f7578063e985e9c51461032757610100565b80636352211e1461022357806370a0823114610253578063714cff561461028357806395d89b41146102a157610100565b806311f87b19116100d357806311f87b191461019f57806323b872dd146101bb57806339e237f0146101d757806342842e0e1461020757610100565b806301ffc9a71461010557806306fdde0314610135578063081812fc14610153578063095ea7b314610183575b600080fd5b61011f600480360381019061011a9190611c3e565b610357565b60405161012c91906120fd565b60405180910390f35b61013d610439565b60405161014a9190612118565b60405180910390f35b61016d60048036038101906101689190611c98565b6104cb565b60405161017a919061204b565b60405180910390f35b61019d60048036038101906101989190611bfe565b610550565b005b6101b960048036038101906101b49190611ba2565b610668565b005b6101d560048036038101906101d09190611a8c565b6106d2565b005b6101f160048036038101906101ec9190611a1f565b610732565b6040516101fe91906120db565b60405180910390f35b610221600480360381019061021c9190611a8c565b610833565b005b61023d60048036038101906102389190611c98565b610853565b60405161024a919061204b565b60405180910390f35b61026d60048036038101906102689190611a1f565b610905565b60405161027a919061231a565b60405180910390f35b61028b6109bd565b604051610298919061231a565b60405180910390f35b6102a96109c9565b6040516102b69190612118565b60405180910390f35b6102d960048036038101906102d49190611b62565b610a5b565b005b6102f560048036038101906102f09190611adf565b610bdc565b005b610311600480360381019061030c9190611c98565b610c3e565b60405161031e9190612118565b60405180910390f35b610341600480360381019061033c9190611a4c565b610ce5565b60405161034e91906120fd565b60405180910390f35b60007f80ac58cd000000000000000000000000000000000000000000000000000000007bffffffffffffffffffffffffffffffffffffffffffffffffffffffff1916827bffffffffffffffffffffffffffffffffffffffffffffffffffffffff1916148061042257507f5b5e139f000000000000000000000000000000000000000000000000000000007bffffffffffffffffffffffffffffffffffffffffffffffffffffffff1916827bffffffffffffffffffffffffffffffffffffffffffffffffffffffff1916145b80610432575061043182610d79565b5b9050919050565b606060008054610448906125a9565b80601f0160208091040260200160405190810160405280929190818152602001828054610474906125a9565b80156104c15780601f10610496576101008083540402835291602001916104c1565b820191906000526020600020905b8154815290600101906020018083116104a457829003601f168201915b5050505050905090565b60006104d682610de3565b610515576040517f08c379a000000000000000000000000000000000000000000000000000000000815260040161050c9061227a565b60405180910390fd5b6004600083815260200190815260200160002060009054906101000a900473ffffffffffffffffffffffffffffffffffffffff169050919050565b600061055b82610853565b90508073ffffffffffffffffffffffffffffffffffffffff168373ffffffffffffffffffffffffffffffffffffffff1614156105cc576040517f08c379a00000000000000000000000000000000000000000000000000000000081526004016105c3906122da565b60405180910390fd5b8073ffffffffffffffffffffffffffffffffffffffff166105eb610e4f565b73ffffffffffffffffffffffffffffffffffffffff16148061061a575061061981610614610e4f565b610ce5565b5b610659576040517f08c379a0000000000000000000000000000000000000000000000000000000008152600401610650906121da565b60405180910390fd5b6106638383610e57565b505050565b60006106746006610f10565b90506106808382610f1e565b61068a81836110ec565b6106946006611160565b7febddff399c2639d52aac2b426c49acb783ddd9ed4409880c784f3bd7f055859183826040516106c59291906120b2565b60405180910390a1505050565b6106e36106dd610e4f565b82611176565b610722576040517f08c379a0000000000000000000000000000000000000000000000000000000008152600401610719906122fa565b60405180910390fd5b61072d838383611254565b505050565b606060006107406006610f10565b9050600061074d84610905565b905060008167ffffffffffffffff81111561076b5761076a612742565b5b6040519080825280602002602001820160405280156107995781602001602082028036833780820191505090505b5090506000805b84811015610826578673ffffffffffffffffffffffffffffffffffffffff166107c882610853565b73ffffffffffffffffffffffffffffffffffffffff16141561081357808383815181106107f8576107f7612713565b5b602002602001018181525050818061080f9061260c565b9250505b808061081e9061260c565b9150506107a0565b5081945050505050919050565b61084e83838360405180602001604052806000815250610bdc565b505050565b6000806002600084815260200190815260200160002060009054906101000a900473ffffffffffffffffffffffffffffffffffffffff169050600073ffffffffffffffffffffffffffffffffffffffff168173ffffffffffffffffffffffffffffffffffffffff1614156108fc576040517f08c379a00000000000000000000000000000000000000000000000000000000081526004016108f39061221a565b60405180910390fd5b80915050919050565b60008073ffffffffffffffffffffffffffffffffffffffff168273ffffffffffffffffffffffffffffffffffffffff161415610976576040517f08c379a000000000000000000000000000000000000000000000000000000000815260040161096d906121fa565b60405180910390fd5b600360008373ffffffffffffffffffffffffffffffffffffffff1673ffffffffffffffffffffffffffffffffffffffff168152602001908152602001600020549050919050565b60068060000154905081565b6060600180546109d8906125a9565b80601f0160208091040260200160405190810160405280929190818152602001828054610a04906125a9565b8015610a515780601f10610a2657610100808354040283529160200191610a51565b820191906000526020600020905b815481529060010190602001808311610a3457829003601f168201915b5050505050905090565b610a63610e4f565b73ffffffffffffffffffffffffffffffffffffffff168273ffffffffffffffffffffffffffffffffffffffff161415610ad1576040517f08c379a0000000000000000000000000000000000000000000000000000000008152600401610ac89061219a565b60405180910390fd5b8060056000610ade610e4f565b73ffffffffffffffffffffffffffffffffffffffff1673ffffffffffffffffffffffffffffffffffffffff16815260200190815260200160002060008473ffffffffffffffffffffffffffffffffffffffff1673ffffffffffffffffffffffffffffffffffffffff16815260200190815260200160002060006101000a81548160ff0219169083151502179055508173ffffffffffffffffffffffffffffffffffffffff16610b8b610e4f565b73ffffffffffffffffffffffffffffffffffffffff167f17307eab39ab6107e8899845ad3d59bd9653f200f220920489ca2b5937696c3183604051610bd091906120fd565b60405180910390a35050565b610bed610be7610e4f565b83611176565b610c2c576040517f08c379a0000000000000000000000000000000000000000000000000000000008152600401610c23906122fa565b60405180910390fd5b610c38848484846114b0565b50505050565b6060610c4982610de3565b610c88576040517f08c379a0000000000000000000000000000000000000000000000000000000008152600401610c7f906122ba565b60405180910390fd5b6000610c9261150c565b90506000815111610cb25760405180602001604052806000815250610cdd565b80610cbc84611523565b604051602001610ccd929190612027565b6040516020818303038152906040525b915050919050565b6000600560008473ffffffffffffffffffffffffffffffffffffffff1673ffffffffffffffffffffffffffffffffffffffff16815260200190815260200160002060008373ffffffffffffffffffffffffffffffffffffffff1673ffffffffffffffffffffffffffffffffffffffff16815260200190815260200160002060009054906101000a900460ff16905092915050565b60007f01ffc9a7000000000000000000000000000000000000000000000000000000007bffffffffffffffffffffffffffffffffffffffffffffffffffffffff1916827bffffffffffffffffffffffffffffffffffffffffffffffffffffffff1916149050919050565b60008073ffffffffffffffffffffffffffffffffffffffff166002600084815260200190815260200160002060009054906101000a900473ffffffffffffffffffffffffffffffffffffffff1673ffffffffffffffffffffffffffffffffffffffff1614159050919050565b600033905090565b816004600083815260200190815260200160002060006101000a81548173ffffffffffffffffffffffffffffffffffffffff021916908373ffffffffffffffffffffffffffffffffffffffff160217905550808273ffffffffffffffffffffffffffffffffffffffff16610eca83610853565b73ffffffffffffffffffffffffffffffffffffffff167f8c5be1e5ebec7d5bd14f71427d1e84f3dd0314c0f7b2291e5b200ac8c7c3b92560405160405180910390a45050565b600081600001549050919050565b600073ffffffffffffffffffffffffffffffffffffffff168273ffffffffffffffffffffffffffffffffffffffff161415610f8e576040517f08c379a0000000000000000000000000000000000000000000000000000000008152600401610f859061225a565b60405180910390fd5b610f9781610de3565b15610fd7576040517f08c379a0000000000000000000000000000000000000000000000000000000008152600401610fce9061215a565b60405180910390fd5b610fe360008383611684565b6001600360008473ffffffffffffffffffffffffffffffffffffffff1673ffffffffffffffffffffffffffffffffffffffff16815260200190815260200160002060008282546110339190612438565b92505081905550816002600083815260200190815260200160002060006101000a81548173ffffffffffffffffffffffffffffffffffffffff021916908373ffffffffffffffffffffffffffffffffffffffff160217905550808273ffffffffffffffffffffffffffffffffffffffff16600073ffffffffffffffffffffffffffffffffffffffff167fddf252ad1be2c89b69c2b068fc378daa952ba7f163c4a11628f55a4df523b3ef60405160405180910390a45050565b6110f582610de3565b611134576040517f08c379a000000000000000000000000000000000000000000000000000000000815260040161112b9061223a565b60405180910390fd5b8060076000848152602001908152602001600020908051906020019061115b929190611833565b505050565b6001816000016000828254019250508190555050565b600061118182610de3565b6111c0576040517f08c379a00000000000000000000000000000000000000000000000000000000081526004016111b7906121ba565b60405180910390fd5b60006111cb83610853565b90508073ffffffffffffffffffffffffffffffffffffffff168473ffffffffffffffffffffffffffffffffffffffff16148061123a57508373ffffffffffffffffffffffffffffffffffffffff16611222846104cb565b73ffffffffffffffffffffffffffffffffffffffff16145b8061124b575061124a8185610ce5565b5b91505092915050565b8273ffffffffffffffffffffffffffffffffffffffff1661127482610853565b73ffffffffffffffffffffffffffffffffffffffff16146112ca576040517f08c379a00000000000000000000000000000000000000000000000000000000081526004016112c19061229a565b60405180910390fd5b600073ffffffffffffffffffffffffffffffffffffffff168273ffffffffffffffffffffffffffffffffffffffff16141561133a576040517f08c379a00000000000000000000000000000000000000000000000000000000081526004016113319061217a565b60405180910390fd5b611345838383611684565b611350600082610e57565b6001600360008573ffffffffffffffffffffffffffffffffffffffff1673ffffffffffffffffffffffffffffffffffffffff16815260200190815260200160002060008282546113a091906124bf565b925050819055506001600360008473ffffffffffffffffffffffffffffffffffffffff1673ffffffffffffffffffffffffffffffffffffffff16815260200190815260200160002060008282546113f79190612438565b92505081905550816002600083815260200190815260200160002060006101000a81548173ffffffffffffffffffffffffffffffffffffffff021916908373ffffffffffffffffffffffffffffffffffffffff160217905550808273ffffffffffffffffffffffffffffffffffffffff168473ffffffffffffffffffffffffffffffffffffffff167fddf252ad1be2c89b69c2b068fc378daa952ba7f163c4a11628f55a4df523b3ef60405160405180910390a4505050565b6114bb848484611254565b6114c784848484611689565b611506576040517f08c379a00000000000000000000000000000000000000000000000000000000081526004016114fd9061213a565b60405180910390fd5b50505050565b606060405180602001604052806000815250905090565b6060600082141561156b576040518060400160405280600181526020017f3000000000000000000000000000000000000000000000000000000000000000815250905061167f565b600082905060005b6000821461159d5780806115869061260c565b915050600a82611596919061248e565b9150611573565b60008167ffffffffffffffff8111156115b9576115b8612742565b5b6040519080825280601f01601f1916602001820160405280156115eb5781602001600182028036833780820191505090505b5090505b600085146116785760018261160491906124bf565b9150600a856116139190612655565b603061161f9190612438565b60f81b81838151811061163557611634612713565b5b60200101907effffffffffffffffffffffffffffffffffffffffffffffffffffffffffffff1916908160001a905350600a85611671919061248e565b94506115ef565b8093505050505b919050565b505050565b60006116aa8473ffffffffffffffffffffffffffffffffffffffff16611820565b15611813578373ffffffffffffffffffffffffffffffffffffffff1663150b7a026116d3610e4f565b8786866040518563ffffffff1660e01b81526004016116f59493929190612066565b602060405180830381600087803b15801561170f57600080fd5b505af192505050801561174057506040513d601f19601f8201168201806040525081019061173d9190611c6b565b60015b6117c3573d8060008114611770576040519150601f19603f3d011682016040523d82523d6000602084013e611775565b606091505b506000815114156117bb576040517f08c379a00000000000000000000000000000000000000000000000000000000081526004016117b29061213a565b60405180910390fd5b805181602001fd5b63150b7a0260e01b7bffffffffffffffffffffffffffffffffffffffffffffffffffffffff1916817bffffffffffffffffffffffffffffffffffffffffffffffffffffffff191614915050611818565b600190505b949350505050565b600080823b905060008111915050919050565b82805461183f906125a9565b90600052602060002090601f01602090048101928261186157600085556118a8565b82601f1061187a57805160ff19168380011785556118a8565b828001600101855582156118a8579182015b828111156118a757825182559160200191906001019061188c565b5b5090506118b591906118b9565b5090565b5b808211156118d25760008160009055506001016118ba565b5090565b60006118e96118e48461235a565b612335565b90508281526020810184848401111561190557611904612776565b5b611910848285612567565b509392505050565b600061192b6119268461238b565b612335565b90508281526020810184848401111561194757611946612776565b5b611952848285612567565b509392505050565b60008135905061196981612b9f565b92915050565b60008135905061197e81612bb6565b92915050565b60008135905061199381612bcd565b92915050565b6000815190506119a881612bcd565b92915050565b600082601f8301126119c3576119c2612771565b5b81356119d38482602086016118d6565b91505092915050565b600082601f8301126119f1576119f0612771565b5b8135611a01848260208601611918565b91505092915050565b600081359050611a1981612be4565b92915050565b600060208284031215611a3557611a34612780565b5b6000611a438482850161195a565b91505092915050565b60008060408385031215611a6357611a62612780565b5b6000611a718582860161195a565b9250506020611a828582860161195a565b9150509250929050565b600080600060608486031215611aa557611aa4612780565b5b6000611ab38682870161195a565b9350506020611ac48682870161195a565b9250506040611ad586828701611a0a565b9150509250925092565b60008060008060808587031215611af957611af8612780565b5b6000611b078782880161195a565b9450506020611b188782880161195a565b9350506040611b2987828801611a0a565b925050606085013567ffffffffffffffff811115611b4a57611b4961277b565b5b611b56878288016119ae565b91505092959194509250565b60008060408385031215611b7957611b78612780565b5b6000611b878582860161195a565b9250506020611b988582860161196f565b9150509250929050565b60008060408385031215611bb957611bb8612780565b5b6000611bc78582860161195a565b925050602083013567ffffffffffffffff811115611be857611be761277b565b5b611bf4858286016119dc565b9150509250929050565b60008060408385031215611c1557611c14612780565b5b6000611c238582860161195a565b9250506020611c3485828601611a0a565b9150509250929050565b600060208284031215611c5457611c53612780565b5b6000611c6284828501611984565b91505092915050565b600060208284031215611c8157611c80612780565b5b6000611c8f84828501611999565b91505092915050565b600060208284031215611cae57611cad612780565b5b6000611cbc84828501611a0a565b91505092915050565b6000611cd18383612009565b60208301905092915050565b611ce6816124f3565b82525050565b6000611cf7826123cc565b611d0181856123fa565b9350611d0c836123bc565b8060005b83811015611d3d578151611d248882611cc5565b9750611d2f836123ed565b925050600181019050611d10565b5085935050505092915050565b611d5381612505565b82525050565b6000611d64826123d7565b611d6e818561240b565b9350611d7e818560208601612576565b611d8781612785565b840191505092915050565b6000611d9d826123e2565b611da7818561241c565b9350611db7818560208601612576565b611dc081612785565b840191505092915050565b6000611dd6826123e2565b611de0818561242d565b9350611df0818560208601612576565b80840191505092915050565b6000611e0960328361241c565b9150611e1482612796565b604082019050919050565b6000611e2c601c8361241c565b9150611e37826127e5565b602082019050919050565b6000611e4f60248361241c565b9150611e5a8261280e565b604082019050919050565b6000611e7260198361241c565b9150611e7d8261285d565b602082019050919050565b6000611e95602c8361241c565b9150611ea082612886565b604082019050919050565b6000611eb860388361241c565b9150611ec3826128d5565b604082019050919050565b6000611edb602a8361241c565b9150611ee682612924565b604082019050919050565b6000611efe60298361241c565b9150611f0982612973565b604082019050919050565b6000611f2160188361241c565b9150611f2c826129c2565b602082019050919050565b6000611f4460208361241c565b9150611f4f826129eb565b602082019050919050565b6000611f67602c8361241c565b9150611f7282612a14565b604082019050919050565b6000611f8a60298361241c565b9150611f9582612a63565b604082019050919050565b6000611fad602f8361241c565b9150611fb882612ab2565b604082019050919050565b6000611fd060218361241c565b9150611fdb82612b01565b604082019050919050565b6000611ff360318361241c565b9150611ffe82612b50565b604082019050919050565b6120128161255d565b82525050565b6120218161255d565b82525050565b60006120338285611dcb565b915061203f8284611dcb565b91508190509392505050565b60006020820190506120606000830184611cdd565b92915050565b600060808201905061207b6000830187611cdd565b6120886020830186611cdd565b6120956040830185612018565b81810360608301526120a78184611d59565b905095945050505050565b60006040820190506120c76000830185611cdd565b6120d46020830184612018565b9392505050565b600060208201905081810360008301526120f58184611cec565b905092915050565b60006020820190506121126000830184611d4a565b92915050565b600060208201905081810360008301526121328184611d92565b905092915050565b6000602082019050818103600083015261215381611dfc565b9050919050565b6000602082019050818103600083015261217381611e1f565b9050919050565b6000602082019050818103600083015261219381611e42565b9050919050565b600060208201905081810360008301526121b381611e65565b9050919050565b600060208201905081810360008301526121d381611e88565b9050919050565b600060208201905081810360008301526121f381611eab565b9050919050565b6000602082019050818103600083015261221381611ece565b9050919050565b6000602082019050818103600083015261223381611ef1565b9050919050565b6000602082019050818103600083015261225381611f14565b9050919050565b6000602082019050818103600083015261227381611f37565b9050919050565b6000602082019050818103600083015261229381611f5a565b9050919050565b600060208201905081810360008301526122b381611f7d565b9050919050565b600060208201905081810360008301526122d381611fa0565b9050919050565b600060208201905081810360008301526122f381611fc3565b9050919050565b6000602082019050818103600083015261231381611fe6565b9050919050565b600060208201905061232f6000830184612018565b92915050565b600061233f612350565b905061234b82826125db565b919050565b6000604051905090565b600067ffffffffffffffff82111561237557612374612742565b5b61237e82612785565b9050602081019050919050565b600067ffffffffffffffff8211156123a6576123a5612742565b5b6123af82612785565b9050602081019050919050565b6000819050602082019050919050565b600081519050919050565b600081519050919050565b600081519050919050565b6000602082019050919050565b600082825260208201905092915050565b600082825260208201905092915050565b600082825260208201905092915050565b600081905092915050565b60006124438261255d565b915061244e8361255d565b9250827fffffffffffffffffffffffffffffffffffffffffffffffffffffffffffffffff0382111561248357612482612686565b5b828201905092915050565b60006124998261255d565b91506124a48361255d565b9250826124b4576124b36126b5565b5b828204905092915050565b60006124ca8261255d565b91506124d58361255d565b9250828210156124e8576124e7612686565b5b828203905092915050565b60006124fe8261253d565b9050919050565b60008115159050919050565b60007fffffffff0000000000000000000000000000000000000000000000000000000082169050919050565b600073ffffffffffffffffffffffffffffffffffffffff82169050919050565b6000819050919050565b82818337600083830152505050565b60005b83811015612594578082015181840152602081019050612579565b838111156125a3576000848401525b50505050565b600060028204905060018216806125c157607f821691505b602082108114156125d5576125d46126e4565b5b50919050565b6125e482612785565b810181811067ffffffffffffffff8211171561260357612602612742565b5b80604052505050565b60006126178261255d565b91507fffffffffffffffffffffffffffffffffffffffffffffffffffffffffffffffff82141561264a57612649612686565b5b600182019050919050565b60006126608261255d565b915061266b8361255d565b92508261267b5761267a6126b5565b5b828206905092915050565b7f4e487b7100000000000000000000000000000000000000000000000000000000600052601160045260246000fd5b7f4e487b7100000000000000000000000000000000000000000000000000000000600052601260045260246000fd5b7f4e487b7100000000000000000000000000000000000000000000000000000000600052602260045260246000fd5b7f4e487b7100000000000000000000000000000000000000000000000000000000600052603260045260246000fd5b7f4e487b7100000000000000000000000000000000000000000000000000000000600052604160045260246000fd5b600080fd5b600080fd5b600080fd5b600080fd5b6000601f19601f8301169050919050565b7f4552433732313a207472616e7366657220746f206e6f6e20455243373231526560008201527f63656976657220696d706c656d656e7465720000000000000000000000000000602082015250565b7f4552433732313a20746f6b656e20616c7265616479206d696e74656400000000600082015250565b7f4552433732313a207472616e7366657220746f20746865207a65726f2061646460008201527f7265737300000000000000000000000000000000000000000000000000000000602082015250565b7f4552433732313a20617070726f766520746f2063616c6c657200000000000000600082015250565b7f4552433732313a206f70657261746f7220717565727920666f72206e6f6e657860008201527f697374656e7420746f6b656e0000000000000000000000000000000000000000602082015250565b7f4552433732313a20617070726f76652063616c6c6572206973206e6f74206f7760008201527f6e6572206e6f7220617070726f76656420666f7220616c6c0000000000000000602082015250565b7f4552433732313a2062616c616e636520717565727920666f7220746865207a6560008201527f726f206164647265737300000000000000000000000000000000000000000000602082015250565b7f4552433732313a206f776e657220717565727920666f72206e6f6e657869737460008201527f656e7420746f6b656e0000000000000000000000000000000000000000000000602082015250565b7f555249206f66206e6f6e6578697374656e7420746f6b656e0000000000000000600082015250565b7f4552433732313a206d696e7420746f20746865207a65726f2061646472657373600082015250565b7f4552433732313a20617070726f76656420717565727920666f72206e6f6e657860008201527f697374656e7420746f6b656e0000000000000000000000000000000000000000602082015250565b7f4552433732313a207472616e73666572206f6620746f6b656e2074686174206960008201527f73206e6f74206f776e0000000000000000000000000000000000000000000000602082015250565b7f4552433732314d657461646174613a2055524920717565727920666f72206e6f60008201527f6e6578697374656e7420746f6b656e0000000000000000000000000000000000602082015250565b7f4552433732313a20617070726f76616c20746f2063757272656e74206f776e6560008201527f7200000000000000000000000000000000000000000000000000000000000000602082015250565b7f4552433732313a207472616e736665722063616c6c6572206973206e6f74206f60008201527f776e6572206e6f7220617070726f766564000000000000000000000000000000602082015250565b612ba8816124f3565b8114612bb357600080fd5b50565b612bbf81612505565b8114612bca57600080fd5b50565b612bd681612511565b8114612be157600080fd5b50565b612bed8161255d565b8114612bf857600080fd5b5056fea264697066735822122065a48357afc8a5f617eca62efc68d2d4ef5b597356c5ed37faee54c61e4efce864736f6c63430008060033",
  "immutableReferences": {},
  "source": "//SPDX-License-Identifier:MIT\n\npragma solidity ^0.8.4;\n \nimport \"@openzeppelin/contracts/token/ERC721/ERC721.sol\";\nimport \"@openzeppelin/contracts/utils/Counters.sol\";\n contract Token is ERC721{\n     using Counters for Counters.Counter;\n     Counters.Counter public tokenIds;\n\n     mapping(uint256 =>string) _tokenURIs;\n     \n     constructor(string memory _name, string memory _symbol)   ERC721(_name, _symbol){\n     }\n     \n     event NFTminted(address owner, uint256 id);\n    \n    string private _baseURIs;\n    \n     //mint the collectibles\n     function mintNft(address reciever, string memory _tokenURI ) external {\n        uint256 id = tokenIds.current();\n        _mint(reciever,id);\n        _setTokenURI(id,_tokenURI);\n        tokenIds.increment();\n       emit  NFTminted(reciever,id);\n         \n     }\n    //set the URI of collectibles\n     function _setTokenURI(uint256 id,string memory _tokenURI)internal {\n         require(_exists(id),\"URI of nonexistent token\");\n         _tokenURIs[id] = _tokenURI;\n     }\n     //set baseURI of collectibles\n\n    function _setbaseURI(string memory baseURI) internal virtual{\n        _baseURIs = baseURI;\n    }\n\n     //display the tokens belonging to the particular owner\n     function tokensofOwner(address _owner) external view  returns(uint256[] memory){\n         uint256 _total = tokenIds.current();\n         uint256 numTokens = balanceOf(_owner);\n         uint256[] memory owner_token  = new uint256[](numTokens);\n         uint256 resultindex =0;\n        for(uint256 i = 0; i<_total; i++){\n            if(ownerOf(i) == _owner)\n            {\n                owner_token[resultindex]=i;\n                resultindex ++;\n            }\n        }\n        return owner_token; \n     }\n     \n }",
  "sourcePath": "/home/anu/Blockchain/NFT-Market/contracts/Token.sol",
  "compiler": {
    "name": "solc",
    "version": "0.8.6+commit.11564f7e.Emscripten.clang"
  },
  "schemaVersion": "3.4.0",
  "updatedAt": "2021-07-27T04:12:31.638Z",
  "networkType": "ethereum",
  "devdoc": {
    "kind": "dev",
    "methods": {
      "approve(address,uint256)": {
        "details": "See {IERC721-approve}."
      },
      "balanceOf(address)": {
        "details": "See {IERC721-balanceOf}."
      },
      "getApproved(uint256)": {
        "details": "See {IERC721-getApproved}."
      },
      "isApprovedForAll(address,address)": {
        "details": "See {IERC721-isApprovedForAll}."
      },
      "name()": {
        "details": "See {IERC721Metadata-name}."
      },
      "ownerOf(uint256)": {
        "details": "See {IERC721-ownerOf}."
      },
      "safeTransferFrom(address,address,uint256)": {
        "details": "See {IERC721-safeTransferFrom}."
      },
      "safeTransferFrom(address,address,uint256,bytes)": {
        "details": "See {IERC721-safeTransferFrom}."
      },
      "setApprovalForAll(address,bool)": {
        "details": "See {IERC721-setApprovalForAll}."
      },
      "supportsInterface(bytes4)": {
        "details": "See {IERC165-supportsInterface}."
      },
      "symbol()": {
        "details": "See {IERC721Metadata-symbol}."
      },
      "tokenURI(uint256)": {
        "details": "See {IERC721Metadata-tokenURI}."
      },
      "transferFrom(address,address,uint256)": {
        "details": "See {IERC721-transferFrom}."
      }
    },
    "version": 1
  },
  "userdoc": {
    "kind": "user",
    "methods": {},
    "version": 1
  }
}