{
  "contractName": "Tokenmarket",
  "abi": [
    {
      "inputs": [
        {
          "internalType": "contract Token",
          "name": "_tokens",
          "type": "address"
        }
      ],
      "stateMutability": "nonpayable",
      "type": "constructor"
    },
    {
      "anonymous": false,
      "inputs": [
        {
          "indexed": false,
          "internalType": "uint256",
          "name": "tokenid",
          "type": "uint256"
        },
        {
          "indexed": false,
          "internalType": "uint256",
          "name": "price",
          "type": "uint256"
        },
        {
          "indexed": false,
          "internalType": "address",
          "name": "issuer",
          "type": "address"
        }
      ],
      "name": "listedforsale",
      "type": "event"
    },
    {
      "anonymous": false,
      "inputs": [
        {
          "indexed": false,
          "internalType": "uint256",
          "name": "id",
          "type": "uint256"
        },
        {
          "indexed": false,
          "internalType": "address",
          "name": "buyer",
          "type": "address"
        }
      ],
      "name": "tokensold",
      "type": "event"
    },
    {
      "inputs": [
        {
          "internalType": "uint256",
          "name": "",
          "type": "uint256"
        }
      ],
      "name": "forsale",
      "outputs": [
        {
          "internalType": "enum Tokenmarket.states",
          "name": "",
          "type": "uint8"
        }
      ],
      "stateMutability": "view",
      "type": "function"
    },
    {
      "inputs": [],
      "name": "tokens",
      "outputs": [
        {
          "internalType": "contract Token",
          "name": "",
          "type": "address"
        }
      ],
      "stateMutability": "view",
      "type": "function"
    },
    {
      "inputs": [
        {
          "internalType": "uint256",
          "name": "price",
          "type": "uint256"
        },
        {
          "internalType": "uint256",
          "name": "tokenid",
          "type": "uint256"
        }
      ],
      "name": "listforsell",
      "outputs": [],
      "stateMutability": "nonpayable",
      "type": "function"
    },
    {
      "inputs": [
        {
          "internalType": "uint256",
          "name": "tokenid",
          "type": "uint256"
        }
      ],
      "name": "buytoken",
      "outputs": [],
      "stateMutability": "payable",
      "type": "function"
    },
    {
      "inputs": [
        {
          "internalType": "uint256",
          "name": "id",
          "type": "uint256"
        }
      ],
      "name": "tokendetails",
      "outputs": [
        {
          "internalType": "address",
          "name": "_owner",
          "type": "address"
        },
        {
          "internalType": "string",
          "name": "tokenuri",
          "type": "string"
        },
        {
          "internalType": "enum Tokenmarket.states",
          "name": "state",
          "type": "uint8"
        },
        {
          "internalType": "uint256",
          "name": "price",
          "type": "uint256"
        }
      ],
      "stateMutability": "view",
      "type": "function"
    },
    {
      "inputs": [
        {
          "internalType": "uint256",
          "name": "id",
          "type": "uint256"
        }
      ],
      "name": "tokenstate",
      "outputs": [
        {
          "internalType": "enum Tokenmarket.states",
          "name": "state",
          "type": "uint8"
        }
      ],
      "stateMutability": "view",
      "type": "function"
    },
    {
      "inputs": [
        {
          "internalType": "uint256",
          "name": "tokenid",
          "type": "uint256"
        }
      ],
      "name": "cancelsell",
      "outputs": [],
      "stateMutability": "nonpayable",
      "type": "function"
    }
  ],
  "bytecode": "0x60806040523480156200001157600080fd5b506040516200179d3803806200179d833981810160405281019062000037919062000096565b80600260006101000a81548173ffffffffffffffffffffffffffffffffffffffff021916908373ffffffffffffffffffffffffffffffffffffffff160217905550506200012f565b600081519050620000908162000115565b92915050565b600060208284031215620000af57620000ae62000110565b5b6000620000bf848285016200007f565b91505092915050565b6000620000d582620000f0565b9050919050565b6000620000e982620000c8565b9050919050565b600073ffffffffffffffffffffffffffffffffffffffff82169050919050565b600080fd5b6200012081620000dc565b81146200012c57600080fd5b50565b61165e806200013f6000396000f3fe6080604052600436106100705760003560e01c806362e478691161004e57806362e47869146100f75780639d63848a14610137578063a4903c7514610162578063dc7cb83e1461019f57610070565b806319bece1b146100755780631e19fde3146100915780634dc28c72146100ba575b600080fd5b61008f600480360381019061008a9190610d9e565b6101c8565b005b34801561009d57600080fd5b506100b860048036038101906100b39190610d9e565b610619565b005b3480156100c657600080fd5b506100e160048036038101906100dc9190610d9e565b6107f6565b6040516100ee9190611045565b60405180910390f35b34801561010357600080fd5b5061011e60048036038101906101199190610d9e565b610820565b60405161012e9493929190610fde565b60405180910390f35b34801561014357600080fd5b5061014c6109d2565b604051610159919061102a565b60405180910390f35b34801561016e57600080fd5b5061018960048036038101906101849190610d9e565b6109f8565b6040516101969190611045565b60405180910390f35b3480156101ab57600080fd5b506101c660048036038101906101c19190610dcb565b610a18565b005b60046000828152602001908152602001600020548034101561021f576040517f08c379a000000000000000000000000000000000000000000000000000000000815260040161021690611140565b60405180910390fd5b6004600083815260200190815260200160002054803411156102f75760008134610249919061124d565b905033600160006101000a81548173ffffffffffffffffffffffffffffffffffffffff021916908373ffffffffffffffffffffffffffffffffffffffff160217905550600160009054906101000a900473ffffffffffffffffffffffffffffffffffffffff1673ffffffffffffffffffffffffffffffffffffffff166108fc829081150290604051600060405180830381858888f193505050501580156102f4573d6000803e3d6000fd5b50505b600060046000858152602001908152602001600020549050600180811115610322576103216113cf565b5b6003600086815260200190815260200160002060009054906101000a900460ff166001811115610355576103546113cf565b5b14610395576040517f08c379a000000000000000000000000000000000000000000000000000000000815260040161038c906110a0565b60405180910390fd5b600081116103d8576040517f08c379a00000000000000000000000000000000000000000000000000000000081526004016103cf906110e0565b60405180910390fd5b600260009054906101000a900473ffffffffffffffffffffffffffffffffffffffff1673ffffffffffffffffffffffffffffffffffffffff16636352211e856040518263ffffffff1660e01b81526004016104339190611160565b60206040518083038186803b15801561044b57600080fd5b505afa15801561045f573d6000803e3d6000fd5b505050506040513d601f19601f820116820180604052508101906104839190610d28565b6000806101000a81548173ffffffffffffffffffffffffffffffffffffffff021916908373ffffffffffffffffffffffffffffffffffffffff16021790555060008054906101000a900473ffffffffffffffffffffffffffffffffffffffff1673ffffffffffffffffffffffffffffffffffffffff166108fc829081150290604051600060405180830381858888f19350505050158015610528573d6000803e3d6000fd5b50600260009054906101000a900473ffffffffffffffffffffffffffffffffffffffff1673ffffffffffffffffffffffffffffffffffffffff166342842e0e60008054906101000a900473ffffffffffffffffffffffffffffffffffffffff1633876040518463ffffffff1660e01b81526004016105a893929190610fa7565b600060405180830381600087803b1580156105c257600080fd5b505af11580156105d6573d6000803e3d6000fd5b505050507f7c124f4fb190c49897f7e2042221720b74109cb98617716736b6f73dd8a7c112843360405161060b92919061117b565b60405180910390a150505050565b60018081111561062c5761062b6113cf565b5b6003600083815260200190815260200160002060009054906101000a900460ff16600181111561065f5761065e6113cf565b5b1461069f576040517f08c379a000000000000000000000000000000000000000000000000000000000815260040161069690611060565b60405180910390fd5b600260009054906101000a900473ffffffffffffffffffffffffffffffffffffffff1673ffffffffffffffffffffffffffffffffffffffff16636352211e826040518263ffffffff1660e01b81526004016106fa9190611160565b60206040518083038186803b15801561071257600080fd5b505afa158015610726573d6000803e3d6000fd5b505050506040513d601f19601f8201168201806040525081019061074a9190610d28565b73ffffffffffffffffffffffffffffffffffffffff163373ffffffffffffffffffffffffffffffffffffffff16146107b7576040517f08c379a00000000000000000000000000000000000000000000000000000000081526004016107ae90611120565b60405180910390fd5b60006003600083815260200190815260200160002060006101000a81548160ff021916908360018111156107ee576107ed6113cf565b5b021790555050565b60006003600083815260200190815260200160002060009054906101000a900460ff169050919050565b600060606000806000600260009054906101000a900473ffffffffffffffffffffffffffffffffffffffff1673ffffffffffffffffffffffffffffffffffffffff16636352211e876040518263ffffffff1660e01b81526004016108849190611160565b60206040518083038186803b15801561089c57600080fd5b505afa1580156108b0573d6000803e3d6000fd5b505050506040513d601f19601f820116820180604052508101906108d49190610d28565b90506000600260009054906101000a900473ffffffffffffffffffffffffffffffffffffffff1673ffffffffffffffffffffffffffffffffffffffff1663c87b56dd886040518263ffffffff1660e01b81526004016109339190611160565b60006040518083038186803b15801561094b57600080fd5b505afa15801561095f573d6000803e3d6000fd5b505050506040513d6000823e3d601f19601f820116820180604052508101906109889190610d55565b90508181600360008a815260200190815260200160002060009054906101000a900460ff16600460008b815260200190815260200160002054955095509550955050509193509193565b600260009054906101000a900473ffffffffffffffffffffffffffffffffffffffff1681565b60036020528060005260406000206000915054906101000a900460ff1681565b6000821415610a5c576040517f08c379a0000000000000000000000000000000000000000000000000000000008152600401610a5390611100565b60405180910390fd5b600180811115610a6f57610a6e6113cf565b5b6003600083815260200190815260200160002060009054906101000a900460ff166001811115610aa257610aa16113cf565b5b1415610ae3576040517f08c379a0000000000000000000000000000000000000000000000000000000008152600401610ada906110c0565b60405180910390fd5b3073ffffffffffffffffffffffffffffffffffffffff16600260009054906101000a900473ffffffffffffffffffffffffffffffffffffffff1673ffffffffffffffffffffffffffffffffffffffff1663081812fc836040518263ffffffff1660e01b8152600401610b559190611160565b60206040518083038186803b158015610b6d57600080fd5b505afa158015610b81573d6000803e3d6000fd5b505050506040513d601f19601f82011682018060405250810190610ba59190610d28565b73ffffffffffffffffffffffffffffffffffffffff1614610bfb576040517f08c379a0000000000000000000000000000000000000000000000000000000008152600401610bf290611080565b60405180910390fd5b81600460008381526020019081526020016000208190555060016003600083815260200190815260200160002060006101000a81548160ff02191690836001811115610c4a57610c496113cf565b5b02179055507ff4920e38afe6b2064b2f00406725bc5812bbfe679c960a1f944e4070464ace20818330604051610c82939291906111a4565b60405180910390a15050565b6000610ca1610c9c84611200565b6111db565b905082815260208101848484011115610cbd57610cbc611432565b5b610cc884828561133c565b509392505050565b600081519050610cdf816115fa565b92915050565b600082601f830112610cfa57610cf961142d565b5b8151610d0a848260208601610c8e565b91505092915050565b600081359050610d2281611611565b92915050565b600060208284031215610d3e57610d3d61143c565b5b6000610d4c84828501610cd0565b91505092915050565b600060208284031215610d6b57610d6a61143c565b5b600082015167ffffffffffffffff811115610d8957610d88611437565b5b610d9584828501610ce5565b91505092915050565b600060208284031215610db457610db361143c565b5b6000610dc284828501610d13565b91505092915050565b60008060408385031215610de257610de161143c565b5b6000610df085828601610d13565b9250506020610e0185828601610d13565b9150509250929050565b610e14816112d0565b82525050565b610e2381611281565b82525050565b610e32816112e2565b82525050565b610e4181611306565b82525050565b6000610e5282611231565b610e5c818561123c565b9350610e6c81856020860161133c565b610e7581611441565b840191505092915050565b6000610e8d60148361123c565b9150610e9882611452565b602082019050919050565b6000610eb0602a8361123c565b9150610ebb8261147b565b604082019050919050565b6000610ed360148361123c565b9150610ede826114ca565b602082019050919050565b6000610ef660158361123c565b9150610f01826114f3565b602082019050919050565b6000610f19600c8361123c565b9150610f248261151c565b602082019050919050565b6000610f3c601c8361123c565b9150610f4782611545565b602082019050919050565b6000610f5f60268361123c565b9150610f6a8261156e565b604082019050919050565b6000610f8260148361123c565b9150610f8d826115bd565b602082019050919050565b610fa1816112c6565b82525050565b6000606082019050610fbc6000830186610e0b565b610fc96020830185610e1a565b610fd66040830184610f98565b949350505050565b6000608082019050610ff36000830187610e1a565b81810360208301526110058186610e47565b90506110146040830185610e38565b6110216060830184610f98565b95945050505050565b600060208201905061103f6000830184610e29565b92915050565b600060208201905061105a6000830184610e38565b92915050565b6000602082019050818103600083015261107981610e80565b9050919050565b6000602082019050818103600083015261109981610ea3565b9050919050565b600060208201905081810360008301526110b981610ec6565b9050919050565b600060208201905081810360008301526110d981610ee9565b9050919050565b600060208201905081810360008301526110f981610f0c565b9050919050565b6000602082019050818103600083015261111981610f2f565b9050919050565b6000602082019050818103600083015261113981610f52565b9050919050565b6000602082019050818103600083015261115981610f75565b9050919050565b60006020820190506111756000830184610f98565b92915050565b60006040820190506111906000830185610f98565b61119d6020830184610e1a565b9392505050565b60006060820190506111b96000830186610f98565b6111c66020830185610f98565b6111d36040830184610e1a565b949350505050565b60006111e56111f6565b90506111f1828261136f565b919050565b6000604051905090565b600067ffffffffffffffff82111561121b5761121a6113fe565b5b61122482611441565b9050602081019050919050565b600081519050919050565b600082825260208201905092915050565b6000611258826112c6565b9150611263836112c6565b925082821015611276576112756113a0565b5b828203905092915050565b600061128c826112a6565b9050919050565b60008190506112a1826115e6565b919050565b600073ffffffffffffffffffffffffffffffffffffffff82169050919050565b6000819050919050565b60006112db82611318565b9050919050565b60006112ed826112f4565b9050919050565b60006112ff826112a6565b9050919050565b600061131182611293565b9050919050565b60006113238261132a565b9050919050565b6000611335826112a6565b9050919050565b60005b8381101561135a57808201518184015260208101905061133f565b83811115611369576000848401525b50505050565b61137882611441565b810181811067ffffffffffffffff82111715611397576113966113fe565b5b80604052505050565b7f4e487b7100000000000000000000000000000000000000000000000000000000600052601160045260246000fd5b7f4e487b7100000000000000000000000000000000000000000000000000000000600052602160045260246000fd5b7f4e487b7100000000000000000000000000000000000000000000000000000000600052604160045260246000fd5b600080fd5b600080fd5b600080fd5b600080fd5b6000601f19601f8301169050919050565b7f546f6b656e2069736e6f7420666f722073616c65000000000000000000000000600082015250565b7f436f6e7472616374206973206e6f7420617070726f76656420746f2073656c6c60008201527f2074686520746f6b656e00000000000000000000000000000000000000000000602082015250565b7f546f6b656e206973206e6f7420666f7273616c65000000000000000000000000600082015250565b7f546f6b656e20616c726561647920696e2073616c650000000000000000000000600082015250565b7f6e6f7420666f722073616c650000000000000000000000000000000000000000600082015250565b7f53656c6c696e672070726963652063616e6e6f74206265207a65726f00000000600082015250565b7f4f6e6c792020546f6b656e206f776e65722063616e2063616e63656c2074686560008201527f2073656c6c200000000000000000000000000000000000000000000000000000602082015250565b7f4e6f742073756666696369656e74207072696365000000000000000000000000600082015250565b600281106115f7576115f66113cf565b5b50565b61160381611281565b811461160e57600080fd5b50565b61161a816112c6565b811461162557600080fd5b5056fea26469706673582212207abadc9ce25fa7ccc2ec7797b08c165b6ffa5b7cec4ad5e594899944922dd63664736f6c63430008060033",
  "immutableReferences": {},
  "source": "//SPDX-License-Identifier:MIT\n\npragma solidity ^0.8.4;\n\nimport \"./Token.sol\";\n\n\ncontract Tokenmarket{\n    \n    address  payable seller;\n    address  payable buyer;\n    Token public tokens;\n    \n    enum  states {\n        initial,\n        sale\n    }\n    \n    mapping(uint256 => states) public forsale;//maps the tokenid with it's state\n    mapping(uint256 => uint256) sellingprice; // maps the tokenid with it's selling price as added by the owner\n    \n    constructor ( Token _tokens)  {\n         tokens = _tokens;\n    }\n     event listedforsale(uint256 tokenid, uint256 price , address issuer);\n     event tokensold(uint256 id , address buyer );\n\n     modifier paidenough(uint256 price){\n        require(msg.value >= price,\"Not sufficient price\");\n        \n        _;\n    }\n    modifier refundexcess(uint256 price)   {\n        if (msg.value > price)\n        {\n            uint256 return_value;\n            return_value = msg.value -price;\n            buyer = payable(msg.sender);\n            buyer.transfer(return_value);\n        }\n        _;\n    }\n\n     //to list the collectibles for sale by the owner ,contract(approved to sale token on behalf of owner)\n    function listforsell(uint256 price,uint256 tokenid) public{\n        require(price != 0,\"Selling price cannot be zero\");\n        require(forsale[tokenid] != states.sale,\"Token already in sale\");\n        require (tokens.getApproved(tokenid) == address(this),\"Contract is not approved to sell the token\");\n        sellingprice[tokenid] = price;\n        forsale[tokenid] = states.sale;\n        emit listedforsale(tokenid, price ,address(this));\n\n    }\n    //buy the collectibles paying sufficient price as indicated\n    function buytoken(uint256 tokenid) public  payable  paidenough (sellingprice[tokenid]) refundexcess(sellingprice[tokenid]){\n        \n        uint256 price = sellingprice[tokenid];\n        require(forsale[tokenid] == states.sale,\"Token is not forsale\");\n        require(price > 0, \"not for sale\");\n        \n        seller = payable(tokens.ownerOf(tokenid));\n        seller.transfer(price);\n       \n        tokens.safeTransferFrom(seller,msg.sender,tokenid);\n      emit   tokensold(tokenid, msg.sender);\n       \n    }\n    \n    //dispaly the details of the collectibles\n    function tokendetails(uint256 id) public  view returns( address _owner, string  memory tokenuri,states state,uint256 price){\n        address owner = tokens.ownerOf(id);\n        string memory uri = tokens.tokenURI(id);\n        return(owner,uri,\n        forsale[id],\n        sellingprice[id]\n        ); \n    }\n\n    //display the token state\n    function tokenstate(uint256 id) public view returns (states state){\n        return forsale[id]; \n\n    }\n    \n    //remove the token form the sale list\n    function cancelsell(uint256 tokenid) public {\n        require(forsale[tokenid] == states.sale,\"Token isnot for sale\");\n        require(msg.sender ==tokens.ownerOf(tokenid),\"Only  Token owner can cancel the sell \");\n        forsale[tokenid] = states.initial;\n    }\n    \n} \n",
  "sourcePath": "/home/anu/Blockchain/NFT-Market/contracts/Tokenmarket.sol",
  "compiler": {
    "name": "solc",
    "version": "0.8.6+commit.11564f7e.Emscripten.clang"
  },
  "schemaVersion": "3.4.0",
  "updatedAt": "2021-08-02T15:47:55.437Z",
  "devdoc": {
    "kind": "dev",
    "methods": {},
    "version": 1
  },
  "userdoc": {
    "kind": "user",
    "methods": {},
    "version": 1
  }
}