{
  "contractName": "Token",
  "abi": [
    {
      "inputs": [
        {
          "internalType": "string",
          "name": "_name",
          "type": "string"
        },
        {
          "internalType": "string",
          "name": "_symbol",
          "type": "string"
        }
      ],
      "stateMutability": "nonpayable",
      "type": "constructor"
    },
    {
      "anonymous": false,
      "inputs": [
        {
          "indexed": true,
          "internalType": "address",
          "name": "owner",
          "type": "address"
        },
        {
          "indexed": true,
          "internalType": "address",
          "name": "approved",
          "type": "address"
        },
        {
          "indexed": true,
          "internalType": "uint256",
          "name": "tokenId",
          "type": "uint256"
        }
      ],
      "name": "Approval",
      "type": "event"
    },
    {
      "anonymous": false,
      "inputs": [
        {
          "indexed": true,
          "internalType": "address",
          "name": "owner",
          "type": "address"
        },
        {
          "indexed": true,
          "internalType": "address",
          "name": "operator",
          "type": "address"
        },
        {
          "indexed": false,
          "internalType": "bool",
          "name": "approved",
          "type": "bool"
        }
      ],
      "name": "ApprovalForAll",
      "type": "event"
    },
    {
      "anonymous": false,
      "inputs": [
        {
          "indexed": false,
          "internalType": "address",
          "name": "owner",
          "type": "address"
        },
        {
          "indexed": false,
          "internalType": "uint256",
          "name": "id",
          "type": "uint256"
        }
      ],
      "name": "NFTminted",
      "type": "event"
    },
    {
      "anonymous": false,
      "inputs": [
        {
          "indexed": true,
          "internalType": "address",
          "name": "from",
          "type": "address"
        },
        {
          "indexed": true,
          "internalType": "address",
          "name": "to",
          "type": "address"
        },
        {
          "indexed": true,
          "internalType": "uint256",
          "name": "tokenId",
          "type": "uint256"
        }
      ],
      "name": "Transfer",
      "type": "event"
    },
    {
      "inputs": [
        {
          "internalType": "address",
          "name": "to",
          "type": "address"
        },
        {
          "internalType": "uint256",
          "name": "tokenId",
          "type": "uint256"
        }
      ],
      "name": "approve",
      "outputs": [],
      "stateMutability": "nonpayable",
      "type": "function"
    },
    {
      "inputs": [
        {
          "internalType": "address",
          "name": "owner",
          "type": "address"
        }
      ],
      "name": "balanceOf",
      "outputs": [
        {
          "internalType": "uint256",
          "name": "",
          "type": "uint256"
        }
      ],
      "stateMutability": "view",
      "type": "function",
      "constant": true
    },
    {
      "inputs": [
        {
          "internalType": "uint256",
          "name": "tokenId",
          "type": "uint256"
        }
      ],
      "name": "getApproved",
      "outputs": [
        {
          "internalType": "address",
          "name": "",
          "type": "address"
        }
      ],
      "stateMutability": "view",
      "type": "function",
      "constant": true
    },
    {
      "inputs": [
        {
          "internalType": "address",
          "name": "owner",
          "type": "address"
        },
        {
          "internalType": "address",
          "name": "operator",
          "type": "address"
        }
      ],
      "name": "isApprovedForAll",
      "outputs": [
        {
          "internalType": "bool",
          "name": "",
          "type": "bool"
        }
      ],
      "stateMutability": "view",
      "type": "function",
      "constant": true
    },
    {
      "inputs": [],
      "name": "name",
      "outputs": [
        {
          "internalType": "string",
          "name": "",
          "type": "string"
        }
      ],
      "stateMutability": "view",
      "type": "function",
      "constant": true
    },
    {
      "inputs": [
        {
          "internalType": "uint256",
          "name": "tokenId",
          "type": "uint256"
        }
      ],
      "name": "ownerOf",
      "outputs": [
        {
          "internalType": "address",
          "name": "",
          "type": "address"
        }
      ],
      "stateMutability": "view",
      "type": "function",
      "constant": true
    },
    {
      "inputs": [
        {
          "internalType": "address",
          "name": "from",
          "type": "address"
        },
        {
          "internalType": "address",
          "name": "to",
          "type": "address"
        },
        {
          "internalType": "uint256",
          "name": "tokenId",
          "type": "uint256"
        }
      ],
      "name": "safeTransferFrom",
      "outputs": [],
      "stateMutability": "nonpayable",
      "type": "function"
    },
    {
      "inputs": [
        {
          "internalType": "address",
          "name": "from",
          "type": "address"
        },
        {
          "internalType": "address",
          "name": "to",
          "type": "address"
        },
        {
          "internalType": "uint256",
          "name": "tokenId",
          "type": "uint256"
        },
        {
          "internalType": "bytes",
          "name": "_data",
          "type": "bytes"
        }
      ],
      "name": "safeTransferFrom",
      "outputs": [],
      "stateMutability": "nonpayable",
      "type": "function"
    },
    {
      "inputs": [
        {
          "internalType": "address",
          "name": "operator",
          "type": "address"
        },
        {
          "internalType": "bool",
          "name": "approved",
          "type": "bool"
        }
      ],
      "name": "setApprovalForAll",
      "outputs": [],
      "stateMutability": "nonpayable",
      "type": "function"
    },
    {
      "inputs": [
        {
          "internalType": "bytes4",
          "name": "interfaceId",
          "type": "bytes4"
        }
      ],
      "name": "supportsInterface",
      "outputs": [
        {
          "internalType": "bool",
          "name": "",
          "type": "bool"
        }
      ],
      "stateMutability": "view",
      "type": "function",
      "constant": true
    },
    {
      "inputs": [],
      "name": "symbol",
      "outputs": [
        {
          "internalType": "string",
          "name": "",
          "type": "string"
        }
      ],
      "stateMutability": "view",
      "type": "function",
      "constant": true
    },
    {
      "inputs": [],
      "name": "tokenIds",
      "outputs": [
        {
          "internalType": "uint256",
          "name": "_value",
          "type": "uint256"
        }
      ],
      "stateMutability": "view",
      "type": "function",
      "constant": true
    },
    {
      "inputs": [
        {
          "internalType": "address",
          "name": "from",
          "type": "address"
        },
        {
          "internalType": "address",
          "name": "to",
          "type": "address"
        },
        {
          "internalType": "uint256",
          "name": "tokenId",
          "type": "uint256"
        }
      ],
      "name": "transferFrom",
      "outputs": [],
      "stateMutability": "nonpayable",
      "type": "function"
    },
    {
      "inputs": [
        {
          "internalType": "address",
          "name": "reciever",
          "type": "address"
        },
        {
          "internalType": "string",
          "name": "_tokenURI",
          "type": "string"
        }
      ],
      "name": "mintNft",
      "outputs": [],
      "stateMutability": "nonpayable",
      "type": "function"
    },
    {
      "inputs": [
        {
          "internalType": "string",
          "name": "baseURIs",
          "type": "string"
        }
      ],
      "name": "_setbaseURI",
      "outputs": [],
      "stateMutability": "nonpayable",
      "type": "function"
    },
    {
      "inputs": [
        {
          "internalType": "uint256",
          "name": "id",
          "type": "uint256"
        }
      ],
      "name": "tokenURI",
      "outputs": [
        {
          "internalType": "string",
          "name": "",
          "type": "string"
        }
      ],
      "stateMutability": "view",
      "type": "function",
      "constant": true
    },
    {
      "inputs": [
        {
          "internalType": "address",
          "name": "_owner",
          "type": "address"
        }
      ],
      "name": "tokensofOwner",
      "outputs": [
        {
          "internalType": "uint256[]",
          "name": "",
          "type": "uint256[]"
        }
      ],
      "stateMutability": "view",
      "type": "function",
      "constant": true
    }
  ],
  "bytecode": "0x60806040523480156200001157600080fd5b5060405162002e3438038062002e348339818101604052810190620000379190620001a3565b818181600090805190602001906200005192919062000075565b5080600190805190602001906200006a92919062000075565b5050505050620003ac565b8280546200008390620002bd565b90600052602060002090601f016020900481019282620000a75760008555620000f3565b82601f10620000c257805160ff1916838001178555620000f3565b82800160010185558215620000f3579182015b82811115620000f2578251825591602001919060010190620000d5565b5b50905062000102919062000106565b5090565b5b808211156200012157600081600090555060010162000107565b5090565b60006200013c620001368462000251565b62000228565b9050828152602081018484840111156200015b576200015a6200038c565b5b6200016884828562000287565b509392505050565b600082601f83011262000188576200018762000387565b5b81516200019a84826020860162000125565b91505092915050565b60008060408385031215620001bd57620001bc62000396565b5b600083015167ffffffffffffffff811115620001de57620001dd62000391565b5b620001ec8582860162000170565b925050602083015167ffffffffffffffff81111562000210576200020f62000391565b5b6200021e8582860162000170565b9150509250929050565b60006200023462000247565b9050620002428282620002f3565b919050565b6000604051905090565b600067ffffffffffffffff8211156200026f576200026e62000358565b5b6200027a826200039b565b9050602081019050919050565b60005b83811015620002a75780820151818401526020810190506200028a565b83811115620002b7576000848401525b50505050565b60006002820490506001821680620002d657607f821691505b60208210811415620002ed57620002ec62000329565b5b50919050565b620002fe826200039b565b810181811067ffffffffffffffff8211171562000320576200031f62000358565b5b80604052505050565b7f4e487b7100000000000000000000000000000000000000000000000000000000600052602260045260246000fd5b7f4e487b7100000000000000000000000000000000000000000000000000000000600052604160045260246000fd5b600080fd5b600080fd5b600080fd5b600080fd5b6000601f19601f8301169050919050565b612a7880620003bc6000396000f3fe608060405234801561001057600080fd5b506004361061010b5760003560e01c80634985fb5b116100a257806395d89b411161007157806395d89b41146102c8578063a22cb465146102e6578063b88d4fde14610302578063c87b56dd1461031e578063e985e9c51461034e5761010b565b80634985fb5b1461022e5780636352211e1461024a57806370a082311461027a578063714cff56146102aa5761010b565b806311f87b19116100de57806311f87b19146101aa57806323b872dd146101c657806339e237f0146101e257806342842e0e146102125761010b565b806301ffc9a71461011057806306fdde0314610140578063081812fc1461015e578063095ea7b31461018e575b600080fd5b61012a60048036038101906101259190611b53565b61037e565b6040516101379190612006565b60405180910390f35b610148610460565b6040516101559190612021565b60405180910390f35b61017860048036038101906101739190611bf6565b6104f2565b6040516101859190611f54565b60405180910390f35b6101a860048036038101906101a39190611b13565b610577565b005b6101c460048036038101906101bf9190611ab7565b61068f565b005b6101e060048036038101906101db91906119a1565b6106f9565b005b6101fc60048036038101906101f79190611934565b610759565b6040516102099190611fe4565b60405180910390f35b61022c600480360381019061022791906119a1565b61085a565b005b61024860048036038101906102439190611bad565b61087a565b005b610264600480360381019061025f9190611bf6565b610894565b6040516102719190611f54565b60405180910390f35b610294600480360381019061028f9190611934565b610946565b6040516102a19190612223565b60405180910390f35b6102b26109fe565b6040516102bf9190612223565b60405180910390f35b6102d0610a0a565b6040516102dd9190612021565b60405180910390f35b61030060048036038101906102fb9190611a77565b610a9c565b005b61031c600480360381019061031791906119f4565b610c1d565b005b61033860048036038101906103339190611bf6565b610c7f565b6040516103459190612021565b60405180910390f35b61036860048036038101906103639190611961565b610d72565b6040516103759190612006565b60405180910390f35b60007f80ac58cd000000000000000000000000000000000000000000000000000000007bffffffffffffffffffffffffffffffffffffffffffffffffffffffff1916827bffffffffffffffffffffffffffffffffffffffffffffffffffffffff1916148061044957507f5b5e139f000000000000000000000000000000000000000000000000000000007bffffffffffffffffffffffffffffffffffffffffffffffffffffffff1916827bffffffffffffffffffffffffffffffffffffffffffffffffffffffff1916145b80610459575061045882610e06565b5b9050919050565b60606000805461046f90612476565b80601f016020809104026020016040519081016040528092919081815260200182805461049b90612476565b80156104e85780601f106104bd576101008083540402835291602001916104e8565b820191906000526020600020905b8154815290600101906020018083116104cb57829003601f168201915b5050505050905090565b60006104fd82610e70565b61053c576040517f08c379a0000000000000000000000000000000000000000000000000000000008152600401610533906121a3565b60405180910390fd5b6004600083815260200190815260200160002060009054906101000a900473ffffffffffffffffffffffffffffffffffffffff169050919050565b600061058282610894565b90508073ffffffffffffffffffffffffffffffffffffffff168373ffffffffffffffffffffffffffffffffffffffff1614156105f3576040517f08c379a00000000000000000000000000000000000000000000000000000000081526004016105ea906121e3565b60405180910390fd5b8073ffffffffffffffffffffffffffffffffffffffff16610612610edc565b73ffffffffffffffffffffffffffffffffffffffff16148061064157506106408161063b610edc565b610d72565b5b610680576040517f08c379a000000000000000000000000000000000000000000000000000000000815260040161067790612103565b60405180910390fd5b61068a8383610ee4565b505050565b600061069b6006610f9d565b90506106a78382610fab565b6106b18183611179565b6106bb60066111ed565b7febddff399c2639d52aac2b426c49acb783ddd9ed4409880c784f3bd7f055859183826040516106ec929190611fbb565b60405180910390a1505050565b61070a610704610edc565b82611203565b610749576040517f08c379a000000000000000000000000000000000000000000000000000000000815260040161074090612203565b60405180910390fd5b6107548383836112e1565b505050565b606060006107676006610f9d565b9050600061077484610946565b905060008167ffffffffffffffff811115610792576107916125af565b5b6040519080825280602002602001820160405280156107c05781602001602082028036833780820191505090505b5090506000805b8481101561084d578673ffffffffffffffffffffffffffffffffffffffff166107ef82610894565b73ffffffffffffffffffffffffffffffffffffffff16141561083a578083838151811061081f5761081e612580565b5b6020026020010181815250508180610836906124d9565b9250505b8080610845906124d9565b9150506107c7565b5081945050505050919050565b61087583838360405180602001604052806000815250610c1d565b505050565b8060089080519060200190610890929190611748565b5050565b6000806002600084815260200190815260200160002060009054906101000a900473ffffffffffffffffffffffffffffffffffffffff169050600073ffffffffffffffffffffffffffffffffffffffff168173ffffffffffffffffffffffffffffffffffffffff16141561093d576040517f08c379a000000000000000000000000000000000000000000000000000000000815260040161093490612143565b60405180910390fd5b80915050919050565b60008073ffffffffffffffffffffffffffffffffffffffff168273ffffffffffffffffffffffffffffffffffffffff1614156109b7576040517f08c379a00000000000000000000000000000000000000000000000000000000081526004016109ae90612123565b60405180910390fd5b600360008373ffffffffffffffffffffffffffffffffffffffff1673ffffffffffffffffffffffffffffffffffffffff168152602001908152602001600020549050919050565b60068060000154905081565b606060018054610a1990612476565b80601f0160208091040260200160405190810160405280929190818152602001828054610a4590612476565b8015610a925780601f10610a6757610100808354040283529160200191610a92565b820191906000526020600020905b815481529060010190602001808311610a7557829003601f168201915b5050505050905090565b610aa4610edc565b73ffffffffffffffffffffffffffffffffffffffff168273ffffffffffffffffffffffffffffffffffffffff161415610b12576040517f08c379a0000000000000000000000000000000000000000000000000000000008152600401610b09906120c3565b60405180910390fd5b8060056000610b1f610edc565b73ffffffffffffffffffffffffffffffffffffffff1673ffffffffffffffffffffffffffffffffffffffff16815260200190815260200160002060008473ffffffffffffffffffffffffffffffffffffffff1673ffffffffffffffffffffffffffffffffffffffff16815260200190815260200160002060006101000a81548160ff0219169083151502179055508173ffffffffffffffffffffffffffffffffffffffff16610bcc610edc565b73ffffffffffffffffffffffffffffffffffffffff167f17307eab39ab6107e8899845ad3d59bd9653f200f220920489ca2b5937696c3183604051610c119190612006565b60405180910390a35050565b610c2e610c28610edc565b83611203565b610c6d576040517f08c379a0000000000000000000000000000000000000000000000000000000008152600401610c6490612203565b60405180910390fd5b610c798484848461153d565b50505050565b6060610c8a82610e70565b610cc9576040517f08c379a0000000000000000000000000000000000000000000000000000000008152600401610cc090612043565b60405180910390fd5b6000600760008481526020019081526020016000208054610ce990612476565b80601f0160208091040260200160405190810160405280929190818152602001828054610d1590612476565b8015610d625780601f10610d3757610100808354040283529160200191610d62565b820191906000526020600020905b815481529060010190602001808311610d4557829003601f168201915b5050505050905080915050919050565b6000600560008473ffffffffffffffffffffffffffffffffffffffff1673ffffffffffffffffffffffffffffffffffffffff16815260200190815260200160002060008373ffffffffffffffffffffffffffffffffffffffff1673ffffffffffffffffffffffffffffffffffffffff16815260200190815260200160002060009054906101000a900460ff16905092915050565b60007f01ffc9a7000000000000000000000000000000000000000000000000000000007bffffffffffffffffffffffffffffffffffffffffffffffffffffffff1916827bffffffffffffffffffffffffffffffffffffffffffffffffffffffff1916149050919050565b60008073ffffffffffffffffffffffffffffffffffffffff166002600084815260200190815260200160002060009054906101000a900473ffffffffffffffffffffffffffffffffffffffff1673ffffffffffffffffffffffffffffffffffffffff1614159050919050565b600033905090565b816004600083815260200190815260200160002060006101000a81548173ffffffffffffffffffffffffffffffffffffffff021916908373ffffffffffffffffffffffffffffffffffffffff160217905550808273ffffffffffffffffffffffffffffffffffffffff16610f5783610894565b73ffffffffffffffffffffffffffffffffffffffff167f8c5be1e5ebec7d5bd14f71427d1e84f3dd0314c0f7b2291e5b200ac8c7c3b92560405160405180910390a45050565b600081600001549050919050565b600073ffffffffffffffffffffffffffffffffffffffff168273ffffffffffffffffffffffffffffffffffffffff16141561101b576040517f08c379a000000000000000000000000000000000000000000000000000000000815260040161101290612183565b60405180910390fd5b61102481610e70565b15611064576040517f08c379a000000000000000000000000000000000000000000000000000000000815260040161105b90612083565b60405180910390fd5b61107060008383611599565b6001600360008473ffffffffffffffffffffffffffffffffffffffff1673ffffffffffffffffffffffffffffffffffffffff16815260200190815260200160002060008282546110c09190612336565b92505081905550816002600083815260200190815260200160002060006101000a81548173ffffffffffffffffffffffffffffffffffffffff021916908373ffffffffffffffffffffffffffffffffffffffff160217905550808273ffffffffffffffffffffffffffffffffffffffff16600073ffffffffffffffffffffffffffffffffffffffff167fddf252ad1be2c89b69c2b068fc378daa952ba7f163c4a11628f55a4df523b3ef60405160405180910390a45050565b61118282610e70565b6111c1576040517f08c379a00000000000000000000000000000000000000000000000000000000081526004016111b890612163565b60405180910390fd5b806007600084815260200190815260200160002090805190602001906111e8929190611748565b505050565b6001816000016000828254019250508190555050565b600061120e82610e70565b61124d576040517f08c379a0000000000000000000000000000000000000000000000000000000008152600401611244906120e3565b60405180910390fd5b600061125883610894565b90508073ffffffffffffffffffffffffffffffffffffffff168473ffffffffffffffffffffffffffffffffffffffff1614806112c757508373ffffffffffffffffffffffffffffffffffffffff166112af846104f2565b73ffffffffffffffffffffffffffffffffffffffff16145b806112d857506112d78185610d72565b5b91505092915050565b8273ffffffffffffffffffffffffffffffffffffffff1661130182610894565b73ffffffffffffffffffffffffffffffffffffffff1614611357576040517f08c379a000000000000000000000000000000000000000000000000000000000815260040161134e906121c3565b60405180910390fd5b600073ffffffffffffffffffffffffffffffffffffffff168273ffffffffffffffffffffffffffffffffffffffff1614156113c7576040517f08c379a00000000000000000000000000000000000000000000000000000000081526004016113be906120a3565b60405180910390fd5b6113d2838383611599565b6113dd600082610ee4565b6001600360008573ffffffffffffffffffffffffffffffffffffffff1673ffffffffffffffffffffffffffffffffffffffff168152602001908152602001600020600082825461142d919061238c565b925050819055506001600360008473ffffffffffffffffffffffffffffffffffffffff1673ffffffffffffffffffffffffffffffffffffffff16815260200190815260200160002060008282546114849190612336565b92505081905550816002600083815260200190815260200160002060006101000a81548173ffffffffffffffffffffffffffffffffffffffff021916908373ffffffffffffffffffffffffffffffffffffffff160217905550808273ffffffffffffffffffffffffffffffffffffffff168473ffffffffffffffffffffffffffffffffffffffff167fddf252ad1be2c89b69c2b068fc378daa952ba7f163c4a11628f55a4df523b3ef60405160405180910390a4505050565b6115488484846112e1565b6115548484848461159e565b611593576040517f08c379a000000000000000000000000000000000000000000000000000000000815260040161158a90612063565b60405180910390fd5b50505050565b505050565b60006115bf8473ffffffffffffffffffffffffffffffffffffffff16611735565b15611728578373ffffffffffffffffffffffffffffffffffffffff1663150b7a026115e8610edc565b8786866040518563ffffffff1660e01b815260040161160a9493929190611f6f565b602060405180830381600087803b15801561162457600080fd5b505af192505050801561165557506040513d601f19601f820116820180604052508101906116529190611b80565b60015b6116d8573d8060008114611685576040519150601f19603f3d011682016040523d82523d6000602084013e61168a565b606091505b506000815114156116d0576040517f08c379a00000000000000000000000000000000000000000000000000000000081526004016116c790612063565b60405180910390fd5b805181602001fd5b63150b7a0260e01b7bffffffffffffffffffffffffffffffffffffffffffffffffffffffff1916817bffffffffffffffffffffffffffffffffffffffffffffffffffffffff19161491505061172d565b600190505b949350505050565b600080823b905060008111915050919050565b82805461175490612476565b90600052602060002090601f01602090048101928261177657600085556117bd565b82601f1061178f57805160ff19168380011785556117bd565b828001600101855582156117bd579182015b828111156117bc5782518255916020019190600101906117a1565b5b5090506117ca91906117ce565b5090565b5b808211156117e75760008160009055506001016117cf565b5090565b60006117fe6117f984612263565b61223e565b90508281526020810184848401111561181a576118196125e3565b5b611825848285612434565b509392505050565b600061184061183b84612294565b61223e565b90508281526020810184848401111561185c5761185b6125e3565b5b611867848285612434565b509392505050565b60008135905061187e816129e6565b92915050565b600081359050611893816129fd565b92915050565b6000813590506118a881612a14565b92915050565b6000815190506118bd81612a14565b92915050565b600082601f8301126118d8576118d76125de565b5b81356118e88482602086016117eb565b91505092915050565b600082601f830112611906576119056125de565b5b813561191684826020860161182d565b91505092915050565b60008135905061192e81612a2b565b92915050565b60006020828403121561194a576119496125ed565b5b60006119588482850161186f565b91505092915050565b60008060408385031215611978576119776125ed565b5b60006119868582860161186f565b92505060206119978582860161186f565b9150509250929050565b6000806000606084860312156119ba576119b96125ed565b5b60006119c88682870161186f565b93505060206119d98682870161186f565b92505060406119ea8682870161191f565b9150509250925092565b60008060008060808587031215611a0e57611a0d6125ed565b5b6000611a1c8782880161186f565b9450506020611a2d8782880161186f565b9350506040611a3e8782880161191f565b925050606085013567ffffffffffffffff811115611a5f57611a5e6125e8565b5b611a6b878288016118c3565b91505092959194509250565b60008060408385031215611a8e57611a8d6125ed565b5b6000611a9c8582860161186f565b9250506020611aad85828601611884565b9150509250929050565b60008060408385031215611ace57611acd6125ed565b5b6000611adc8582860161186f565b925050602083013567ffffffffffffffff811115611afd57611afc6125e8565b5b611b09858286016118f1565b9150509250929050565b60008060408385031215611b2a57611b296125ed565b5b6000611b388582860161186f565b9250506020611b498582860161191f565b9150509250929050565b600060208284031215611b6957611b686125ed565b5b6000611b7784828501611899565b91505092915050565b600060208284031215611b9657611b956125ed565b5b6000611ba4848285016118ae565b91505092915050565b600060208284031215611bc357611bc26125ed565b5b600082013567ffffffffffffffff811115611be157611be06125e8565b5b611bed848285016118f1565b91505092915050565b600060208284031215611c0c57611c0b6125ed565b5b6000611c1a8482850161191f565b91505092915050565b6000611c2f8383611f36565b60208301905092915050565b611c44816123c0565b82525050565b6000611c55826122d5565b611c5f8185612303565b9350611c6a836122c5565b8060005b83811015611c9b578151611c828882611c23565b9750611c8d836122f6565b925050600181019050611c6e565b5085935050505092915050565b611cb1816123d2565b82525050565b6000611cc2826122e0565b611ccc8185612314565b9350611cdc818560208601612443565b611ce5816125f2565b840191505092915050565b6000611cfb826122eb565b611d058185612325565b9350611d15818560208601612443565b611d1e816125f2565b840191505092915050565b6000611d36601f83612325565b9150611d4182612603565b602082019050919050565b6000611d59603283612325565b9150611d648261262c565b604082019050919050565b6000611d7c601c83612325565b9150611d878261267b565b602082019050919050565b6000611d9f602483612325565b9150611daa826126a4565b604082019050919050565b6000611dc2601983612325565b9150611dcd826126f3565b602082019050919050565b6000611de5602c83612325565b9150611df08261271c565b604082019050919050565b6000611e08603883612325565b9150611e138261276b565b604082019050919050565b6000611e2b602a83612325565b9150611e36826127ba565b604082019050919050565b6000611e4e602983612325565b9150611e5982612809565b604082019050919050565b6000611e71601883612325565b9150611e7c82612858565b602082019050919050565b6000611e94602083612325565b9150611e9f82612881565b602082019050919050565b6000611eb7602c83612325565b9150611ec2826128aa565b604082019050919050565b6000611eda602983612325565b9150611ee5826128f9565b604082019050919050565b6000611efd602183612325565b9150611f0882612948565b604082019050919050565b6000611f20603183612325565b9150611f2b82612997565b604082019050919050565b611f3f8161242a565b82525050565b611f4e8161242a565b82525050565b6000602082019050611f696000830184611c3b565b92915050565b6000608082019050611f846000830187611c3b565b611f916020830186611c3b565b611f9e6040830185611f45565b8181036060830152611fb08184611cb7565b905095945050505050565b6000604082019050611fd06000830185611c3b565b611fdd6020830184611f45565b9392505050565b60006020820190508181036000830152611ffe8184611c4a565b905092915050565b600060208201905061201b6000830184611ca8565b92915050565b6000602082019050818103600083015261203b8184611cf0565b905092915050565b6000602082019050818103600083015261205c81611d29565b9050919050565b6000602082019050818103600083015261207c81611d4c565b9050919050565b6000602082019050818103600083015261209c81611d6f565b9050919050565b600060208201905081810360008301526120bc81611d92565b9050919050565b600060208201905081810360008301526120dc81611db5565b9050919050565b600060208201905081810360008301526120fc81611dd8565b9050919050565b6000602082019050818103600083015261211c81611dfb565b9050919050565b6000602082019050818103600083015261213c81611e1e565b9050919050565b6000602082019050818103600083015261215c81611e41565b9050919050565b6000602082019050818103600083015261217c81611e64565b9050919050565b6000602082019050818103600083015261219c81611e87565b9050919050565b600060208201905081810360008301526121bc81611eaa565b9050919050565b600060208201905081810360008301526121dc81611ecd565b9050919050565b600060208201905081810360008301526121fc81611ef0565b9050919050565b6000602082019050818103600083015261221c81611f13565b9050919050565b60006020820190506122386000830184611f45565b92915050565b6000612248612259565b905061225482826124a8565b919050565b6000604051905090565b600067ffffffffffffffff82111561227e5761227d6125af565b5b612287826125f2565b9050602081019050919050565b600067ffffffffffffffff8211156122af576122ae6125af565b5b6122b8826125f2565b9050602081019050919050565b6000819050602082019050919050565b600081519050919050565b600081519050919050565b600081519050919050565b6000602082019050919050565b600082825260208201905092915050565b600082825260208201905092915050565b600082825260208201905092915050565b60006123418261242a565b915061234c8361242a565b9250827fffffffffffffffffffffffffffffffffffffffffffffffffffffffffffffffff0382111561238157612380612522565b5b828201905092915050565b60006123978261242a565b91506123a28361242a565b9250828210156123b5576123b4612522565b5b828203905092915050565b60006123cb8261240a565b9050919050565b60008115159050919050565b60007fffffffff0000000000000000000000000000000000000000000000000000000082169050919050565b600073ffffffffffffffffffffffffffffffffffffffff82169050919050565b6000819050919050565b82818337600083830152505050565b60005b83811015612461578082015181840152602081019050612446565b83811115612470576000848401525b50505050565b6000600282049050600182168061248e57607f821691505b602082108114156124a2576124a1612551565b5b50919050565b6124b1826125f2565b810181811067ffffffffffffffff821117156124d0576124cf6125af565b5b80604052505050565b60006124e48261242a565b91507fffffffffffffffffffffffffffffffffffffffffffffffffffffffffffffffff82141561251757612516612522565b5b600182019050919050565b7f4e487b7100000000000000000000000000000000000000000000000000000000600052601160045260246000fd5b7f4e487b7100000000000000000000000000000000000000000000000000000000600052602260045260246000fd5b7f4e487b7100000000000000000000000000000000000000000000000000000000600052603260045260246000fd5b7f4e487b7100000000000000000000000000000000000000000000000000000000600052604160045260246000fd5b600080fd5b600080fd5b600080fd5b600080fd5b6000601f19601f8301169050919050565b7f55524920717565727920666f72206e6f6e6578697374656e7420746f6b656e00600082015250565b7f4552433732313a207472616e7366657220746f206e6f6e20455243373231526560008201527f63656976657220696d706c656d656e7465720000000000000000000000000000602082015250565b7f4552433732313a20746f6b656e20616c7265616479206d696e74656400000000600082015250565b7f4552433732313a207472616e7366657220746f20746865207a65726f2061646460008201527f7265737300000000000000000000000000000000000000000000000000000000602082015250565b7f4552433732313a20617070726f766520746f2063616c6c657200000000000000600082015250565b7f4552433732313a206f70657261746f7220717565727920666f72206e6f6e657860008201527f697374656e7420746f6b656e0000000000000000000000000000000000000000602082015250565b7f4552433732313a20617070726f76652063616c6c6572206973206e6f74206f7760008201527f6e6572206e6f7220617070726f76656420666f7220616c6c0000000000000000602082015250565b7f4552433732313a2062616c616e636520717565727920666f7220746865207a6560008201527f726f206164647265737300000000000000000000000000000000000000000000602082015250565b7f4552433732313a206f776e657220717565727920666f72206e6f6e657869737460008201527f656e7420746f6b656e0000000000000000000000000000000000000000000000602082015250565b7f555249206f66206e6f6e6578697374656e7420746f6b656e0000000000000000600082015250565b7f4552433732313a206d696e7420746f20746865207a65726f2061646472657373600082015250565b7f4552433732313a20617070726f76656420717565727920666f72206e6f6e657860008201527f697374656e7420746f6b656e0000000000000000000000000000000000000000602082015250565b7f4552433732313a207472616e73666572206f6620746f6b656e2074686174206960008201527f73206e6f74206f776e0000000000000000000000000000000000000000000000602082015250565b7f4552433732313a20617070726f76616c20746f2063757272656e74206f776e6560008201527f7200000000000000000000000000000000000000000000000000000000000000602082015250565b7f4552433732313a207472616e736665722063616c6c6572206973206e6f74206f60008201527f776e6572206e6f7220617070726f766564000000000000000000000000000000602082015250565b6129ef816123c0565b81146129fa57600080fd5b50565b612a06816123d2565b8114612a1157600080fd5b50565b612a1d816123de565b8114612a2857600080fd5b50565b612a348161242a565b8114612a3f57600080fd5b5056fea2646970667358221220c65f14ceba41b1da1d77e5babbc446f948d15968b4e4d121bbc46235480c0a2264736f6c63430008060033",
  "immutableReferences": {},
  "source": "//SPDX-License-Identifier:MIT\n\npragma solidity ^0.8.4;\n \nimport \"@openzeppelin/contracts/token/ERC721/ERC721.sol\";\nimport \"@openzeppelin/contracts/utils/Counters.sol\";\n contract Token is ERC721{\n     using Counters for Counters.Counter;\n     Counters.Counter public tokenIds;\n\n     mapping(uint256 =>string) _tokenURIs;\n     string private _baseURIs;\n\n     \n     constructor(string memory _name, string memory _symbol)   ERC721(_name, _symbol){\n     }\n     \n     event NFTminted(address owner, uint256 id);\n    \n    \n     //mint the collectibles\n     function mintNft(address reciever, string memory _tokenURI ) external {\n        uint256 id = tokenIds.current();\n        _mint(reciever,id);\n        _setTokenURI(id,_tokenURI);\n        tokenIds.increment();\n       emit  NFTminted(reciever,id);\n         \n     }\n     \n    //set the URI of collectibles\n     function _setTokenURI(uint256 id,string memory _tokenURI)internal {\n         require(_exists(id),\"URI of nonexistent token\");\n         _tokenURIs[id] = _tokenURI;\n     }\n\n     //set baseURI of collectibles\n    function _setbaseURI(string memory baseURIs) external {\n        _baseURIs = baseURIs;\n    }\n\n\n    function tokenURI(uint256 id) public view virtual override returns(string memory){\n        require(_exists(id),\"URI query for nonexistent token\");\n        string memory _tokenURI = _tokenURIs[id];\n        return(_tokenURI);\n        \n    }\n\n\n     //display the tokens belonging to the particular owner\n     function tokensofOwner(address _owner) external view  returns(uint256[] memory){\n         uint256 _total = tokenIds.current();\n         uint256 numTokens = balanceOf(_owner);\n         uint256[] memory owner_token  = new uint256[](numTokens);\n         uint256 resultindex =0;\n        for(uint256 i = 0; i<_total; i++){\n            if(ownerOf(i) == _owner)\n            {\n                owner_token[resultindex]=i;\n                resultindex ++;\n            }\n        }\n        return owner_token; \n     }\n     \n }",
  "sourcePath": "/home/anu/Blockchain/NFT-Market/contracts/Token.sol",
  "compiler": {
    "name": "solc",
    "version": "0.8.6+commit.11564f7e.Emscripten.clang"
  },
  "schemaVersion": "3.4.0",
  "updatedAt": "2021-07-31T08:16:30.418Z",
  "networkType": "ethereum",
  "devdoc": {
    "kind": "dev",
    "methods": {
      "approve(address,uint256)": {
        "details": "See {IERC721-approve}."
      },
      "balanceOf(address)": {
        "details": "See {IERC721-balanceOf}."
      },
      "getApproved(uint256)": {
        "details": "See {IERC721-getApproved}."
      },
      "isApprovedForAll(address,address)": {
        "details": "See {IERC721-isApprovedForAll}."
      },
      "name()": {
        "details": "See {IERC721Metadata-name}."
      },
      "ownerOf(uint256)": {
        "details": "See {IERC721-ownerOf}."
      },
      "safeTransferFrom(address,address,uint256)": {
        "details": "See {IERC721-safeTransferFrom}."
      },
      "safeTransferFrom(address,address,uint256,bytes)": {
        "details": "See {IERC721-safeTransferFrom}."
      },
      "setApprovalForAll(address,bool)": {
        "details": "See {IERC721-setApprovalForAll}."
      },
      "supportsInterface(bytes4)": {
        "details": "See {IERC165-supportsInterface}."
      },
      "symbol()": {
        "details": "See {IERC721Metadata-symbol}."
      },
      "transferFrom(address,address,uint256)": {
        "details": "See {IERC721-transferFrom}."
      }
    },
    "version": 1
  },
  "userdoc": {
    "kind": "user",
    "methods": {},
    "version": 1
  }
}