{
  "contractName": "Tokenmarket",
  "abi": [
    {
      "inputs": [
        {
          "internalType": "contract Token",
          "name": "_tokens",
          "type": "address"
        }
      ],
      "stateMutability": "nonpayable",
      "type": "constructor"
    },
    {
      "anonymous": false,
      "inputs": [
        {
          "indexed": false,
          "internalType": "uint256",
          "name": "tokenid",
          "type": "uint256"
        },
        {
          "indexed": false,
          "internalType": "uint256",
          "name": "price",
          "type": "uint256"
        },
        {
          "indexed": false,
          "internalType": "address",
          "name": "issuer",
          "type": "address"
        }
      ],
      "name": "listedforsale",
      "type": "event"
    },
    {
      "anonymous": false,
      "inputs": [
        {
          "indexed": false,
          "internalType": "uint256",
          "name": "id",
          "type": "uint256"
        },
        {
          "indexed": false,
          "internalType": "address",
          "name": "buyer",
          "type": "address"
        }
      ],
      "name": "tokensold",
      "type": "event"
    },
    {
      "inputs": [],
      "name": "tokens",
      "outputs": [
        {
          "internalType": "contract Token",
          "name": "",
          "type": "address"
        }
      ],
      "stateMutability": "view",
      "type": "function"
    },
    {
      "inputs": [
        {
          "internalType": "uint256",
          "name": "price",
          "type": "uint256"
        },
        {
          "internalType": "uint256",
          "name": "tokenid",
          "type": "uint256"
        }
      ],
      "name": "listforsell",
      "outputs": [],
      "stateMutability": "nonpayable",
      "type": "function"
    },
    {
      "inputs": [
        {
          "internalType": "uint256",
          "name": "tokenid",
          "type": "uint256"
        }
      ],
      "name": "buytoken",
      "outputs": [],
      "stateMutability": "payable",
      "type": "function"
    },
    {
      "inputs": [
        {
          "internalType": "uint256",
          "name": "id",
          "type": "uint256"
        }
      ],
      "name": "tokendetails",
      "outputs": [
        {
          "internalType": "address",
          "name": "_owner",
          "type": "address"
        },
        {
          "internalType": "string",
          "name": "tokenuri",
          "type": "string"
        },
        {
          "internalType": "uint256",
          "name": "price",
          "type": "uint256"
        }
      ],
      "stateMutability": "view",
      "type": "function"
    },
    {
      "inputs": [
        {
          "internalType": "uint256",
          "name": "id",
          "type": "uint256"
        }
      ],
      "name": "tokenstate",
      "outputs": [
        {
          "internalType": "uint256",
          "name": "forsale",
          "type": "uint256"
        }
      ],
      "stateMutability": "view",
      "type": "function"
    },
    {
      "inputs": [
        {
          "internalType": "uint256",
          "name": "id",
          "type": "uint256"
        }
      ],
      "name": "tokenprice",
      "outputs": [
        {
          "internalType": "uint256",
          "name": "price",
          "type": "uint256"
        }
      ],
      "stateMutability": "view",
      "type": "function"
    },
    {
      "inputs": [
        {
          "internalType": "uint256",
          "name": "tokenid",
          "type": "uint256"
        }
      ],
      "name": "cancelsell",
      "outputs": [],
      "stateMutability": "nonpayable",
      "type": "function"
    }
  ],
  "bytecode": "0x60806040523480156200001157600080fd5b506040516200163038038062001630833981810160405281019062000037919062000096565b80600260006101000a81548173ffffffffffffffffffffffffffffffffffffffff021916908373ffffffffffffffffffffffffffffffffffffffff160217905550506200012f565b600081519050620000908162000115565b92915050565b600060208284031215620000af57620000ae62000110565b5b6000620000bf848285016200007f565b91505092915050565b6000620000d582620000f0565b9050919050565b6000620000e982620000c8565b9050919050565b600073ffffffffffffffffffffffffffffffffffffffff82169050919050565b600080fd5b6200012081620000dc565b81146200012c57600080fd5b50565b6114f1806200013f6000396000f3fe6080604052600436106100705760003560e01c80634dc28c721161004e5780634dc28c72146100f757806362e47869146101345780639d63848a14610173578063dc7cb83e1461019e57610070565b8063122c01c11461007557806319bece1b146100b25780631e19fde3146100ce575b600080fd5b34801561008157600080fd5b5061009c60048036038101906100979190610cd1565b6101c7565b6040516100a9919061105b565b60405180910390f35b6100cc60048036038101906100c79190610cd1565b6101e7565b005b3480156100da57600080fd5b506100f560048036038101906100f09190610cd1565b610630565b005b34801561010357600080fd5b5061011e60048036038101906101199190610cd1565b6107c0565b60405161012b919061105b565b60405180910390f35b34801561014057600080fd5b5061015b60048036038101906101569190610cd1565b6107e0565b60405161016a93929190610f02565b60405180910390f35b34801561017f57600080fd5b50610188610970565b6040516101959190610f40565b60405180910390f35b3480156101aa57600080fd5b506101c560048036038101906101c09190610cfe565b610996565b005b600060036000838152602001908152602001600020600101549050919050565b600360008281526020019081526020016000206001015480341015610241576040517f08c379a00000000000000000000000000000000000000000000000000000000081526004016102389061103b565b60405180910390fd5b60036000838152602001908152602001600020600101548034111561031c576000813461026e9190611148565b905033600160006101000a81548173ffffffffffffffffffffffffffffffffffffffff021916908373ffffffffffffffffffffffffffffffffffffffff160217905550600160009054906101000a900473ffffffffffffffffffffffffffffffffffffffff1673ffffffffffffffffffffffffffffffffffffffff166108fc829081150290604051600060405180830381858888f19350505050158015610319573d6000803e3d6000fd5b50505b6000600360008581526020019081526020016000206001015490506001600360008681526020019081526020016000206000015414610390576040517f08c379a000000000000000000000000000000000000000000000000000000000815260040161038790610f9b565b60405180910390fd5b600081116103d3576040517f08c379a00000000000000000000000000000000000000000000000000000000081526004016103ca90610fdb565b60405180910390fd5b600260009054906101000a900473ffffffffffffffffffffffffffffffffffffffff1673ffffffffffffffffffffffffffffffffffffffff16636352211e856040518263ffffffff1660e01b815260040161042e919061105b565b60206040518083038186803b15801561044657600080fd5b505afa15801561045a573d6000803e3d6000fd5b505050506040513d601f19601f8201168201806040525081019061047e9190610c5b565b6000806101000a81548173ffffffffffffffffffffffffffffffffffffffff021916908373ffffffffffffffffffffffffffffffffffffffff16021790555060008054906101000a900473ffffffffffffffffffffffffffffffffffffffff1673ffffffffffffffffffffffffffffffffffffffff166108fc829081150290604051600060405180830381858888f19350505050158015610523573d6000803e3d6000fd5b5060006003600086815260200190815260200160002060000181905550600260009054906101000a900473ffffffffffffffffffffffffffffffffffffffff1673ffffffffffffffffffffffffffffffffffffffff166342842e0e60008054906101000a900473ffffffffffffffffffffffffffffffffffffffff1633876040518463ffffffff1660e01b81526004016105bf93929190610ecb565b600060405180830381600087803b1580156105d957600080fd5b505af11580156105ed573d6000803e3d6000fd5b505050507f7c124f4fb190c49897f7e2042221720b74109cb98617716736b6f73dd8a7c1128433604051610622929190611076565b60405180910390a150505050565b6001600360008381526020019081526020016000206000015414610689576040517f08c379a000000000000000000000000000000000000000000000000000000000815260040161068090610f5b565b60405180910390fd5b600260009054906101000a900473ffffffffffffffffffffffffffffffffffffffff1673ffffffffffffffffffffffffffffffffffffffff16636352211e826040518263ffffffff1660e01b81526004016106e4919061105b565b60206040518083038186803b1580156106fc57600080fd5b505afa158015610710573d6000803e3d6000fd5b505050506040513d601f19601f820116820180604052508101906107349190610c5b565b73ffffffffffffffffffffffffffffffffffffffff163373ffffffffffffffffffffffffffffffffffffffff16146107a1576040517f08c379a00000000000000000000000000000000000000000000000000000000081526004016107989061101b565b60405180910390fd5b6000600360008381526020019081526020016000206000018190555050565b600060036000838152602001908152602001600020600001549050919050565b60006060600080600260009054906101000a900473ffffffffffffffffffffffffffffffffffffffff1673ffffffffffffffffffffffffffffffffffffffff16636352211e866040518263ffffffff1660e01b8152600401610842919061105b565b60206040518083038186803b15801561085a57600080fd5b505afa15801561086e573d6000803e3d6000fd5b505050506040513d601f19601f820116820180604052508101906108929190610c5b565b90506000600260009054906101000a900473ffffffffffffffffffffffffffffffffffffffff1673ffffffffffffffffffffffffffffffffffffffff1663c87b56dd876040518263ffffffff1660e01b81526004016108f1919061105b565b60006040518083038186803b15801561090957600080fd5b505afa15801561091d573d6000803e3d6000fd5b505050506040513d6000823e3d601f19601f820116820180604052508101906109469190610c88565b90508181600360008981526020019081526020016000206001015494509450945050509193909250565b600260009054906101000a900473ffffffffffffffffffffffffffffffffffffffff1681565b60008214156109da576040517f08c379a00000000000000000000000000000000000000000000000000000000081526004016109d190610ffb565b60405180910390fd5b6000600360008381526020019081526020016000206000015414610a33576040517f08c379a0000000000000000000000000000000000000000000000000000000008152600401610a2a90610fbb565b60405180910390fd5b3073ffffffffffffffffffffffffffffffffffffffff16600260009054906101000a900473ffffffffffffffffffffffffffffffffffffffff1673ffffffffffffffffffffffffffffffffffffffff1663081812fc836040518263ffffffff1660e01b8152600401610aa5919061105b565b60206040518083038186803b158015610abd57600080fd5b505afa158015610ad1573d6000803e3d6000fd5b505050506040513d601f19601f82011682018060405250810190610af59190610c5b565b73ffffffffffffffffffffffffffffffffffffffff1614610b4b576040517f08c379a0000000000000000000000000000000000000000000000000000000008152600401610b4290610f7b565b60405180910390fd5b816003600083815260200190815260200160002060010181905550600160036000838152602001908152602001600020600001819055507ff4920e38afe6b2064b2f00406725bc5812bbfe679c960a1f944e4070464ace20818330604051610bb59392919061109f565b60405180910390a15050565b6000610bd4610bcf846110fb565b6110d6565b905082815260208101848484011115610bf057610bef6112d9565b5b610bfb848285611212565b509392505050565b600081519050610c128161148d565b92915050565b600082601f830112610c2d57610c2c6112d4565b5b8151610c3d848260208601610bc1565b91505092915050565b600081359050610c55816114a4565b92915050565b600060208284031215610c7157610c706112e3565b5b6000610c7f84828501610c03565b91505092915050565b600060208284031215610c9e57610c9d6112e3565b5b600082015167ffffffffffffffff811115610cbc57610cbb6112de565b5b610cc884828501610c18565b91505092915050565b600060208284031215610ce757610ce66112e3565b5b6000610cf584828501610c46565b91505092915050565b60008060408385031215610d1557610d146112e3565b5b6000610d2385828601610c46565b9250506020610d3485828601610c46565b9150509250929050565b610d47816111b8565b82525050565b610d568161117c565b82525050565b610d65816111ca565b82525050565b6000610d768261112c565b610d808185611137565b9350610d90818560208601611212565b610d99816112e8565b840191505092915050565b6000610db1601483611137565b9150610dbc826112f9565b602082019050919050565b6000610dd4602a83611137565b9150610ddf82611322565b604082019050919050565b6000610df7601483611137565b9150610e0282611371565b602082019050919050565b6000610e1a601583611137565b9150610e258261139a565b602082019050919050565b6000610e3d600c83611137565b9150610e48826113c3565b602082019050919050565b6000610e60601c83611137565b9150610e6b826113ec565b602082019050919050565b6000610e83602683611137565b9150610e8e82611415565b604082019050919050565b6000610ea6601483611137565b9150610eb182611464565b602082019050919050565b610ec5816111ae565b82525050565b6000606082019050610ee06000830186610d3e565b610eed6020830185610d4d565b610efa6040830184610ebc565b949350505050565b6000606082019050610f176000830186610d4d565b8181036020830152610f298185610d6b565b9050610f386040830184610ebc565b949350505050565b6000602082019050610f556000830184610d5c565b92915050565b60006020820190508181036000830152610f7481610da4565b9050919050565b60006020820190508181036000830152610f9481610dc7565b9050919050565b60006020820190508181036000830152610fb481610dea565b9050919050565b60006020820190508181036000830152610fd481610e0d565b9050919050565b60006020820190508181036000830152610ff481610e30565b9050919050565b6000602082019050818103600083015261101481610e53565b9050919050565b6000602082019050818103600083015261103481610e76565b9050919050565b6000602082019050818103600083015261105481610e99565b9050919050565b60006020820190506110706000830184610ebc565b92915050565b600060408201905061108b6000830185610ebc565b6110986020830184610d4d565b9392505050565b60006060820190506110b46000830186610ebc565b6110c16020830185610ebc565b6110ce6040830184610d4d565b949350505050565b60006110e06110f1565b90506110ec8282611245565b919050565b6000604051905090565b600067ffffffffffffffff821115611116576111156112a5565b5b61111f826112e8565b9050602081019050919050565b600081519050919050565b600082825260208201905092915050565b6000611153826111ae565b915061115e836111ae565b92508282101561117157611170611276565b5b828203905092915050565b60006111878261118e565b9050919050565b600073ffffffffffffffffffffffffffffffffffffffff82169050919050565b6000819050919050565b60006111c3826111ee565b9050919050565b60006111d5826111dc565b9050919050565b60006111e78261118e565b9050919050565b60006111f982611200565b9050919050565b600061120b8261118e565b9050919050565b60005b83811015611230578082015181840152602081019050611215565b8381111561123f576000848401525b50505050565b61124e826112e8565b810181811067ffffffffffffffff8211171561126d5761126c6112a5565b5b80604052505050565b7f4e487b7100000000000000000000000000000000000000000000000000000000600052601160045260246000fd5b7f4e487b7100000000000000000000000000000000000000000000000000000000600052604160045260246000fd5b600080fd5b600080fd5b600080fd5b600080fd5b6000601f19601f8301169050919050565b7f546f6b656e2069736e6f7420666f722073616c65000000000000000000000000600082015250565b7f436f6e7472616374206973206e6f7420617070726f76656420746f2073656c6c60008201527f2074686520746f6b656e00000000000000000000000000000000000000000000602082015250565b7f546f6b656e206973206e6f7420666f7273616c65000000000000000000000000600082015250565b7f546f6b656e20616c726561647920696e2073616c650000000000000000000000600082015250565b7f6e6f7420666f722073616c650000000000000000000000000000000000000000600082015250565b7f53656c6c696e672070726963652063616e6e6f74206265207a65726f00000000600082015250565b7f4f6e6c792020546f6b656e206f776e65722063616e2063616e63656c2074686560008201527f2073656c6c200000000000000000000000000000000000000000000000000000602082015250565b7f4e6f742073756666696369656e74207072696365000000000000000000000000600082015250565b6114968161117c565b81146114a157600080fd5b50565b6114ad816111ae565b81146114b857600080fd5b5056fea2646970667358221220067cf7a34a6e3378cc8973ce07300845da23c2e01c2f30b01bad53ea02d1e6ec64736f6c63430008060033",
  "immutableReferences": {},
  "source": "//SPDX-License-Identifier:MIT\n\npragma solidity ^0.8.4;\n\nimport \"./Token.sol\";\n\n\ncontract Tokenmarket{\n    \n    address  payable seller;\n    address  payable buyer;\n    Token public tokens;\n    \n    // enum  states {\n    //     initial,\n    //     sale\n    // }\n\n     struct token{\n        uint256 forsale;\n        uint256 sellingprice;\n    }\n    // mapping(uint256 => states) public forsale;//maps the tokenid with it's state\n    // mapping(uint256 =>bool) forsale;\n    // mapping(uint256 => uint256) sellingprice; // maps the tokenid with it's selling price as added by the owner\n    \n    mapping(uint256=>token) collectibes;\n\n    constructor ( Token _tokens)  {\n         tokens = _tokens;\n    }\n     event listedforsale(uint256 tokenid, uint256 price , address issuer);\n     event tokensold(uint256 id , address buyer );\n\n     modifier paidenough(uint256 price){\n        require(msg.value >= price,\"Not sufficient price\");\n        \n        _;\n    }\n    modifier refundexcess(uint256 price)   {\n        if (msg.value > price)\n        {\n            uint256 return_value;\n            return_value = msg.value -price;\n            buyer = payable(msg.sender);\n            buyer.transfer(return_value);\n        }\n        _;\n    }\n\n     //to list the collectibles for sale by the owner ,contract(approved to sale token on behalf of owner)\n    function listforsell(uint256 price,uint256 tokenid) public{\n        require(price != 0,\"Selling price cannot be zero\");\n        require(collectibes[tokenid].forsale == 0 ,\"Token already in sale\");\n\n        // require(forsale[tokenid] != states.sale,\"Token already in sale\");\n        require (tokens.getApproved(tokenid) == address(this),\"Contract is not approved to sell the token\");\n        // sellingprice[tokenid] = price;\n        // forsale[tokenid] = states.sale;\n        collectibes[tokenid].sellingprice = price;\n        collectibes[tokenid].forsale =1;\n        emit listedforsale(tokenid, price ,address(this));\n\n    }\n    //buy the collectibles paying sufficient price as indicated\n    function buytoken(uint256 tokenid) public  payable  paidenough (collectibes[tokenid].sellingprice) refundexcess(collectibes[tokenid].sellingprice){\n        \n        // uint256 price = sellingprice[tokenid];\n         uint256 price = collectibes[tokenid].sellingprice;\n\n        // require(forsale[tokenid] == states.sale,\"Token is not forsale\");\n        require(collectibes[tokenid].forsale == 1,\"Token is not forsale\");\n        require(price > 0, \"not for sale\");\n        \n        seller = payable(tokens.ownerOf(tokenid));\n        seller.transfer(price);\n        collectibes[tokenid].forsale = 0;\n\n       \n        tokens.safeTransferFrom(seller,msg.sender,tokenid);\n      emit   tokensold(tokenid, msg.sender);\n       \n    }\n    \n    //dispaly the details of the collectibles\n    function tokendetails(uint256 id) public  view returns( address _owner, string  memory tokenuri,uint256 price){\n        address owner = tokens.ownerOf(id);\n        string memory uri = tokens.tokenURI(id);\n        return(owner,uri,\n        // collectibes[id].forsale,\n        collectibes[id].sellingprice\n        // forsale[id],\n        // sellingprice[id]\n        ); \n    }\n\n    //display the token state\n    function tokenstate(uint256 id) public view returns (uint256 forsale){\n        return collectibes[id].forsale; \n\n    }\n    //display tokenprice \n    function tokenprice(uint256 id) public view returns(uint256 price){\n        return collectibes[id].sellingprice;\n    }\n    \n    //remove the token form the sale list\n    function cancelsell(uint256 tokenid) public {\n        // require(forsale[tokenid] == states.sale,\"Token isnot for sale\");\n        require(collectibes[tokenid].forsale == 1,\"Token isnot for sale\");\n\n        require(msg.sender ==tokens.ownerOf(tokenid),\"Only  Token owner can cancel the sell \");\n        // forsale[tokenid] = states.initial;\n     collectibes[tokenid].forsale = 0;\n\n\n    }\n    \n} \n",
  "sourcePath": "/home/anu/Blockchain/NFT-Market/contracts/Tokenmarket.sol",
  "compiler": {
    "name": "solc",
    "version": "0.8.6+commit.11564f7e.Emscripten.clang"
  },
  "schemaVersion": "3.4.0",
  "updatedAt": "2021-08-03T07:28:26.924Z",
  "devdoc": {
    "kind": "dev",
    "methods": {},
    "version": 1
  },
  "userdoc": {
    "kind": "user",
    "methods": {},
    "version": 1
  }
}