{
  "contractName": "Tokenmarket",
  "abi": [
    {
      "inputs": [
        {
          "internalType": "contract Token",
          "name": "_tokens",
          "type": "address"
        }
      ],
      "stateMutability": "nonpayable",
      "type": "constructor"
    },
    {
      "anonymous": false,
      "inputs": [
        {
          "indexed": false,
          "internalType": "uint256",
          "name": "tokenid",
          "type": "uint256"
        },
        {
          "indexed": false,
          "internalType": "uint256",
          "name": "price",
          "type": "uint256"
        },
        {
          "indexed": false,
          "internalType": "address",
          "name": "issuer",
          "type": "address"
        }
      ],
      "name": "listedforsale",
      "type": "event"
    },
    {
      "anonymous": false,
      "inputs": [
        {
          "indexed": false,
          "internalType": "uint256",
          "name": "id",
          "type": "uint256"
        },
        {
          "indexed": false,
          "internalType": "address",
          "name": "buyer",
          "type": "address"
        }
      ],
      "name": "tokensold",
      "type": "event"
    },
    {
      "inputs": [],
      "name": "tokens",
      "outputs": [
        {
          "internalType": "contract Token",
          "name": "",
          "type": "address"
        }
      ],
      "stateMutability": "view",
      "type": "function",
      "constant": true
    },
    {
      "inputs": [
        {
          "internalType": "uint256",
          "name": "price",
          "type": "uint256"
        },
        {
          "internalType": "uint256",
          "name": "tokenid",
          "type": "uint256"
        }
      ],
      "name": "listforsell",
      "outputs": [],
      "stateMutability": "nonpayable",
      "type": "function"
    },
    {
      "inputs": [
        {
          "internalType": "uint256",
          "name": "tokenid",
          "type": "uint256"
        }
      ],
      "name": "buytoken",
      "outputs": [],
      "stateMutability": "payable",
      "type": "function",
      "payable": true
    },
    {
      "inputs": [
        {
          "internalType": "uint256",
          "name": "id",
          "type": "uint256"
        }
      ],
      "name": "details",
      "outputs": [
        {
          "internalType": "address",
          "name": "_owner",
          "type": "address"
        },
        {
          "internalType": "string",
          "name": "tokenuri",
          "type": "string"
        },
        {
          "internalType": "enum Tokenmarket.states",
          "name": "state",
          "type": "uint8"
        },
        {
          "internalType": "uint256",
          "name": "price",
          "type": "uint256"
        }
      ],
      "stateMutability": "view",
      "type": "function",
      "constant": true
    },
    {
      "inputs": [
        {
          "internalType": "uint256",
          "name": "tokenid",
          "type": "uint256"
        }
      ],
      "name": "cancelsell",
      "outputs": [],
      "stateMutability": "nonpayable",
      "type": "function"
    }
  ],
  "bytecode": "0x60806040523480156200001157600080fd5b506040516200169838038062001698833981810160405281019062000037919062000096565b80600260006101000a81548173ffffffffffffffffffffffffffffffffffffffff021916908373ffffffffffffffffffffffffffffffffffffffff160217905550506200012f565b600081519050620000908162000115565b92915050565b600060208284031215620000af57620000ae62000110565b5b6000620000bf848285016200007f565b91505092915050565b6000620000d582620000f0565b9050919050565b6000620000e982620000c8565b9050919050565b600073ffffffffffffffffffffffffffffffffffffffff82169050919050565b600080fd5b6200012081620000dc565b81146200012c57600080fd5b50565b611559806200013f6000396000f3fe60806040526004361061004a5760003560e01c806319bece1b1461004f5780631e19fde31461006b5780639d63848a14610094578063a005ec7a146100bf578063dc7cb83e146100ff575b600080fd5b61006960048036038101906100649190610cb4565b610128565b005b34801561007757600080fd5b50610092600480360381019061008d9190610cb4565b610579565b005b3480156100a057600080fd5b506100a9610756565b6040516100b69190610f40565b60405180910390f35b3480156100cb57600080fd5b506100e660048036038101906100e19190610cb4565b61077c565b6040516100f69493929190610ef4565b60405180910390f35b34801561010b57600080fd5b5061012660048036038101906101219190610ce1565b61092e565b005b60046000828152602001908152602001600020548034101561017f576040517f08c379a00000000000000000000000000000000000000000000000000000000081526004016101769061103b565b60405180910390fd5b60046000838152602001908152602001600020548034111561025757600081346101a99190611148565b905033600160006101000a81548173ffffffffffffffffffffffffffffffffffffffff021916908373ffffffffffffffffffffffffffffffffffffffff160217905550600160009054906101000a900473ffffffffffffffffffffffffffffffffffffffff1673ffffffffffffffffffffffffffffffffffffffff166108fc829081150290604051600060405180830381858888f19350505050158015610254573d6000803e3d6000fd5b50505b600060046000858152602001908152602001600020549050600180811115610282576102816112ca565b5b6003600086815260200190815260200160002060009054906101000a900460ff1660018111156102b5576102b46112ca565b5b146102f5576040517f08c379a00000000000000000000000000000000000000000000000000000000081526004016102ec90610f9b565b60405180910390fd5b60008111610338576040517f08c379a000000000000000000000000000000000000000000000000000000000815260040161032f90610fdb565b60405180910390fd5b600260009054906101000a900473ffffffffffffffffffffffffffffffffffffffff1673ffffffffffffffffffffffffffffffffffffffff16636352211e856040518263ffffffff1660e01b8152600401610393919061105b565b60206040518083038186803b1580156103ab57600080fd5b505afa1580156103bf573d6000803e3d6000fd5b505050506040513d601f19601f820116820180604052508101906103e39190610c3e565b6000806101000a81548173ffffffffffffffffffffffffffffffffffffffff021916908373ffffffffffffffffffffffffffffffffffffffff16021790555060008054906101000a900473ffffffffffffffffffffffffffffffffffffffff1673ffffffffffffffffffffffffffffffffffffffff166108fc829081150290604051600060405180830381858888f19350505050158015610488573d6000803e3d6000fd5b50600260009054906101000a900473ffffffffffffffffffffffffffffffffffffffff1673ffffffffffffffffffffffffffffffffffffffff166342842e0e60008054906101000a900473ffffffffffffffffffffffffffffffffffffffff1633876040518463ffffffff1660e01b815260040161050893929190610ebd565b600060405180830381600087803b15801561052257600080fd5b505af1158015610536573d6000803e3d6000fd5b505050507f7c124f4fb190c49897f7e2042221720b74109cb98617716736b6f73dd8a7c112843360405161056b929190611076565b60405180910390a150505050565b60018081111561058c5761058b6112ca565b5b6003600083815260200190815260200160002060009054906101000a900460ff1660018111156105bf576105be6112ca565b5b146105ff576040517f08c379a00000000000000000000000000000000000000000000000000000000081526004016105f690610f5b565b60405180910390fd5b600260009054906101000a900473ffffffffffffffffffffffffffffffffffffffff1673ffffffffffffffffffffffffffffffffffffffff16636352211e826040518263ffffffff1660e01b815260040161065a919061105b565b60206040518083038186803b15801561067257600080fd5b505afa158015610686573d6000803e3d6000fd5b505050506040513d601f19601f820116820180604052508101906106aa9190610c3e565b73ffffffffffffffffffffffffffffffffffffffff163373ffffffffffffffffffffffffffffffffffffffff1614610717576040517f08c379a000000000000000000000000000000000000000000000000000000000815260040161070e9061101b565b60405180910390fd5b60006003600083815260200190815260200160002060006101000a81548160ff0219169083600181111561074e5761074d6112ca565b5b021790555050565b600260009054906101000a900473ffffffffffffffffffffffffffffffffffffffff1681565b600060606000806000600260009054906101000a900473ffffffffffffffffffffffffffffffffffffffff1673ffffffffffffffffffffffffffffffffffffffff16636352211e876040518263ffffffff1660e01b81526004016107e0919061105b565b60206040518083038186803b1580156107f857600080fd5b505afa15801561080c573d6000803e3d6000fd5b505050506040513d601f19601f820116820180604052508101906108309190610c3e565b90506000600260009054906101000a900473ffffffffffffffffffffffffffffffffffffffff1673ffffffffffffffffffffffffffffffffffffffff1663c87b56dd886040518263ffffffff1660e01b815260040161088f919061105b565b60006040518083038186803b1580156108a757600080fd5b505afa1580156108bb573d6000803e3d6000fd5b505050506040513d6000823e3d601f19601f820116820180604052508101906108e49190610c6b565b90508181600360008a815260200190815260200160002060009054906101000a900460ff16600460008b815260200190815260200160002054955095509550955050509193509193565b6000821415610972576040517f08c379a000000000000000000000000000000000000000000000000000000000815260040161096990610ffb565b60405180910390fd5b600180811115610985576109846112ca565b5b6003600083815260200190815260200160002060009054906101000a900460ff1660018111156109b8576109b76112ca565b5b14156109f9576040517f08c379a00000000000000000000000000000000000000000000000000000000081526004016109f090610fbb565b60405180910390fd5b3073ffffffffffffffffffffffffffffffffffffffff16600260009054906101000a900473ffffffffffffffffffffffffffffffffffffffff1673ffffffffffffffffffffffffffffffffffffffff1663081812fc836040518263ffffffff1660e01b8152600401610a6b919061105b565b60206040518083038186803b158015610a8357600080fd5b505afa158015610a97573d6000803e3d6000fd5b505050506040513d601f19601f82011682018060405250810190610abb9190610c3e565b73ffffffffffffffffffffffffffffffffffffffff1614610b11576040517f08c379a0000000000000000000000000000000000000000000000000000000008152600401610b0890610f7b565b60405180910390fd5b81600460008381526020019081526020016000208190555060016003600083815260200190815260200160002060006101000a81548160ff02191690836001811115610b6057610b5f6112ca565b5b02179055507ff4920e38afe6b2064b2f00406725bc5812bbfe679c960a1f944e4070464ace20818330604051610b989392919061109f565b60405180910390a15050565b6000610bb7610bb2846110fb565b6110d6565b905082815260208101848484011115610bd357610bd261132d565b5b610bde848285611237565b509392505050565b600081519050610bf5816114f5565b92915050565b600082601f830112610c1057610c0f611328565b5b8151610c20848260208601610ba4565b91505092915050565b600081359050610c388161150c565b92915050565b600060208284031215610c5457610c53611337565b5b6000610c6284828501610be6565b91505092915050565b600060208284031215610c8157610c80611337565b5b600082015167ffffffffffffffff811115610c9f57610c9e611332565b5b610cab84828501610bfb565b91505092915050565b600060208284031215610cca57610cc9611337565b5b6000610cd884828501610c29565b91505092915050565b60008060408385031215610cf857610cf7611337565b5b6000610d0685828601610c29565b9250506020610d1785828601610c29565b9150509250929050565b610d2a816111cb565b82525050565b610d398161117c565b82525050565b610d48816111dd565b82525050565b610d5781611201565b82525050565b6000610d688261112c565b610d728185611137565b9350610d82818560208601611237565b610d8b8161133c565b840191505092915050565b6000610da3601483611137565b9150610dae8261134d565b602082019050919050565b6000610dc6602a83611137565b9150610dd182611376565b604082019050919050565b6000610de9601483611137565b9150610df4826113c5565b602082019050919050565b6000610e0c601583611137565b9150610e17826113ee565b602082019050919050565b6000610e2f600c83611137565b9150610e3a82611417565b602082019050919050565b6000610e52601c83611137565b9150610e5d82611440565b602082019050919050565b6000610e75602683611137565b9150610e8082611469565b604082019050919050565b6000610e98601483611137565b9150610ea3826114b8565b602082019050919050565b610eb7816111c1565b82525050565b6000606082019050610ed26000830186610d21565b610edf6020830185610d30565b610eec6040830184610eae565b949350505050565b6000608082019050610f096000830187610d30565b8181036020830152610f1b8186610d5d565b9050610f2a6040830185610d4e565b610f376060830184610eae565b95945050505050565b6000602082019050610f556000830184610d3f565b92915050565b60006020820190508181036000830152610f7481610d96565b9050919050565b60006020820190508181036000830152610f9481610db9565b9050919050565b60006020820190508181036000830152610fb481610ddc565b9050919050565b60006020820190508181036000830152610fd481610dff565b9050919050565b60006020820190508181036000830152610ff481610e22565b9050919050565b6000602082019050818103600083015261101481610e45565b9050919050565b6000602082019050818103600083015261103481610e68565b9050919050565b6000602082019050818103600083015261105481610e8b565b9050919050565b60006020820190506110706000830184610eae565b92915050565b600060408201905061108b6000830185610eae565b6110986020830184610d30565b9392505050565b60006060820190506110b46000830186610eae565b6110c16020830185610eae565b6110ce6040830184610d30565b949350505050565b60006110e06110f1565b90506110ec828261126a565b919050565b6000604051905090565b600067ffffffffffffffff821115611116576111156112f9565b5b61111f8261133c565b9050602081019050919050565b600081519050919050565b600082825260208201905092915050565b6000611153826111c1565b915061115e836111c1565b9250828210156111715761117061129b565b5b828203905092915050565b6000611187826111a1565b9050919050565b600081905061119c826114e1565b919050565b600073ffffffffffffffffffffffffffffffffffffffff82169050919050565b6000819050919050565b60006111d682611213565b9050919050565b60006111e8826111ef565b9050919050565b60006111fa826111a1565b9050919050565b600061120c8261118e565b9050919050565b600061121e82611225565b9050919050565b6000611230826111a1565b9050919050565b60005b8381101561125557808201518184015260208101905061123a565b83811115611264576000848401525b50505050565b6112738261133c565b810181811067ffffffffffffffff82111715611292576112916112f9565b5b80604052505050565b7f4e487b7100000000000000000000000000000000000000000000000000000000600052601160045260246000fd5b7f4e487b7100000000000000000000000000000000000000000000000000000000600052602160045260246000fd5b7f4e487b7100000000000000000000000000000000000000000000000000000000600052604160045260246000fd5b600080fd5b600080fd5b600080fd5b600080fd5b6000601f19601f8301169050919050565b7f546f6b656e2069736e6f7420666f722073616c65000000000000000000000000600082015250565b7f436f6e7472616374206973206e6f7420617070726f76656420746f2073656c6c60008201527f2074686520746f6b656e00000000000000000000000000000000000000000000602082015250565b7f546f6b656e206973206e6f7420666f7273616c65000000000000000000000000600082015250565b7f546f6b656e20616c726561647920696e2073616c650000000000000000000000600082015250565b7f6e6f7420666f722073616c650000000000000000000000000000000000000000600082015250565b7f53656c6c696e672070726963652063616e6e6f74206265207a65726f00000000600082015250565b7f4f6e6c792020546f6b656e206f776e65722063616e2063616e63656c2074686560008201527f2073656c6c200000000000000000000000000000000000000000000000000000602082015250565b7f4e6f742073756666696369656e74207072696365000000000000000000000000600082015250565b600281106114f2576114f16112ca565b5b50565b6114fe8161117c565b811461150957600080fd5b50565b611515816111c1565b811461152057600080fd5b5056fea26469706673582212208da122bf8abdeb1ee6dc1a5fa7d9b2b0c13d687187ca4d3afeb5036a4812449164736f6c63430008060033",
  "immutableReferences": {},
  "source": "//SPDX-License-Identifier:MIT\n\npragma solidity ^0.8.4;\n\nimport \"./Token.sol\";\n\n\ncontract Tokenmarket{\n    \n    address  payable seller;\n    address  payable buyer;\n    Token public tokens;\n    \n    enum  states {\n        initial,\n        sale\n    }\n    \n    mapping(uint256 => states) forsale;//maps the tokenid with it's state\n    mapping(uint256 => uint256) sellingprice; // maps the tokenid with it's selling price as added by the owner\n    \n    constructor ( Token _tokens)  {\n         tokens = _tokens;\n    }\n     event listedforsale(uint256 tokenid, uint256 price , address issuer);\n     event tokensold(uint256 id , address buyer );\n\n     modifier paidenough(uint256 price){\n        require(msg.value >= price,\"Not sufficient price\");\n        \n        _;\n    }\n    modifier refundexcess(uint256 price)   {\n        if (msg.value > price)\n        {\n            uint256 return_value;\n            return_value = msg.value -price;\n            buyer = payable(msg.sender);\n            buyer.transfer(return_value);\n        }\n        _;\n    }\n\n     //to list the collectibles for sale by the owner ,contract(approved to sale token on behalf of owner)\n    function listforsell(uint256 price,uint256 tokenid) public{\n        require(price != 0,\"Selling price cannot be zero\");\n        require(forsale[tokenid] != states.sale,\"Token already in sale\");\n        require (tokens.getApproved(tokenid) == address(this),\"Contract is not approved to sell the token\");\n        sellingprice[tokenid] = price;\n        forsale[tokenid] = states.sale;\n        emit listedforsale(tokenid, price ,address(this));\n\n    }\n    //buy the collectibles paying sufficient price as indicated\n    function buytoken(uint256 tokenid) public  payable  paidenough (sellingprice[tokenid]) refundexcess(sellingprice[tokenid]){\n        \n        uint256 price = sellingprice[tokenid];\n        require(forsale[tokenid] == states.sale,\"Token is not forsale\");\n        require(price > 0, \"not for sale\");\n        \n        seller = payable(tokens.ownerOf(tokenid));\n        seller.transfer(price);\n       \n        tokens.safeTransferFrom(seller,msg.sender,tokenid);\n      emit   tokensold(tokenid, msg.sender);\n       \n    }\n    \n    //dispaly the details of the collectibles\n    function details(uint256 id) public  view returns( address _owner, string  memory tokenuri,states state,uint256 price){\n        address owner = tokens.ownerOf(id);\n        string memory uri = tokens.tokenURI(id);\n        return(owner,uri,\n        forsale[id],\n        sellingprice[id]\n        );\n        \n    }\n    \n    //remove the token form the sale list\n    function cancelsell(uint256 tokenid) public {\n        require(forsale[tokenid] == states.sale,\"Token isnot for sale\");\n        require(msg.sender ==tokens.ownerOf(tokenid),\"Only  Token owner can cancel the sell \");\n        forsale[tokenid] = states.initial;\n    }\n    \n} \n",
  "sourcePath": "/home/anu/Blockchain/NFT-Market/contracts/Tokenmarket.sol",
  "compiler": {
    "name": "solc",
    "version": "0.8.6+commit.11564f7e.Emscripten.clang"
  },
  "schemaVersion": "3.4.0",
  "updatedAt": "2021-07-27T04:14:43.728Z",
  "networkType": "ethereum",
  "devdoc": {
    "kind": "dev",
    "methods": {},
    "version": 1
  },
  "userdoc": {
    "kind": "user",
    "methods": {},
    "version": 1
  }
}