{
  "contractName": "Token",
  "abi": [
    {
      "inputs": [
        {
          "internalType": "string",
          "name": "_name",
          "type": "string"
        },
        {
          "internalType": "string",
          "name": "_symbol",
          "type": "string"
        }
      ],
      "stateMutability": "nonpayable",
      "type": "constructor"
    },
    {
      "anonymous": false,
      "inputs": [
        {
          "indexed": true,
          "internalType": "address",
          "name": "owner",
          "type": "address"
        },
        {
          "indexed": true,
          "internalType": "address",
          "name": "approved",
          "type": "address"
        },
        {
          "indexed": true,
          "internalType": "uint256",
          "name": "tokenId",
          "type": "uint256"
        }
      ],
      "name": "Approval",
      "type": "event"
    },
    {
      "anonymous": false,
      "inputs": [
        {
          "indexed": true,
          "internalType": "address",
          "name": "owner",
          "type": "address"
        },
        {
          "indexed": true,
          "internalType": "address",
          "name": "operator",
          "type": "address"
        },
        {
          "indexed": false,
          "internalType": "bool",
          "name": "approved",
          "type": "bool"
        }
      ],
      "name": "ApprovalForAll",
      "type": "event"
    },
    {
      "anonymous": false,
      "inputs": [
        {
          "indexed": false,
          "internalType": "address",
          "name": "owner",
          "type": "address"
        },
        {
          "indexed": false,
          "internalType": "uint256",
          "name": "id",
          "type": "uint256"
        }
      ],
      "name": "NFTminted",
      "type": "event"
    },
    {
      "anonymous": false,
      "inputs": [
        {
          "indexed": true,
          "internalType": "address",
          "name": "from",
          "type": "address"
        },
        {
          "indexed": true,
          "internalType": "address",
          "name": "to",
          "type": "address"
        },
        {
          "indexed": true,
          "internalType": "uint256",
          "name": "tokenId",
          "type": "uint256"
        }
      ],
      "name": "Transfer",
      "type": "event"
    },
    {
      "inputs": [
        {
          "internalType": "address",
          "name": "to",
          "type": "address"
        },
        {
          "internalType": "uint256",
          "name": "tokenId",
          "type": "uint256"
        }
      ],
      "name": "approve",
      "outputs": [],
      "stateMutability": "nonpayable",
      "type": "function"
    },
    {
      "inputs": [
        {
          "internalType": "address",
          "name": "owner",
          "type": "address"
        }
      ],
      "name": "balanceOf",
      "outputs": [
        {
          "internalType": "uint256",
          "name": "",
          "type": "uint256"
        }
      ],
      "stateMutability": "view",
      "type": "function",
      "constant": true
    },
    {
      "inputs": [
        {
          "internalType": "uint256",
          "name": "tokenId",
          "type": "uint256"
        }
      ],
      "name": "getApproved",
      "outputs": [
        {
          "internalType": "address",
          "name": "",
          "type": "address"
        }
      ],
      "stateMutability": "view",
      "type": "function",
      "constant": true
    },
    {
      "inputs": [
        {
          "internalType": "address",
          "name": "owner",
          "type": "address"
        },
        {
          "internalType": "address",
          "name": "operator",
          "type": "address"
        }
      ],
      "name": "isApprovedForAll",
      "outputs": [
        {
          "internalType": "bool",
          "name": "",
          "type": "bool"
        }
      ],
      "stateMutability": "view",
      "type": "function",
      "constant": true
    },
    {
      "inputs": [],
      "name": "name",
      "outputs": [
        {
          "internalType": "string",
          "name": "",
          "type": "string"
        }
      ],
      "stateMutability": "view",
      "type": "function",
      "constant": true
    },
    {
      "inputs": [
        {
          "internalType": "uint256",
          "name": "tokenId",
          "type": "uint256"
        }
      ],
      "name": "ownerOf",
      "outputs": [
        {
          "internalType": "address",
          "name": "",
          "type": "address"
        }
      ],
      "stateMutability": "view",
      "type": "function",
      "constant": true
    },
    {
      "inputs": [
        {
          "internalType": "address",
          "name": "from",
          "type": "address"
        },
        {
          "internalType": "address",
          "name": "to",
          "type": "address"
        },
        {
          "internalType": "uint256",
          "name": "tokenId",
          "type": "uint256"
        }
      ],
      "name": "safeTransferFrom",
      "outputs": [],
      "stateMutability": "nonpayable",
      "type": "function"
    },
    {
      "inputs": [
        {
          "internalType": "address",
          "name": "from",
          "type": "address"
        },
        {
          "internalType": "address",
          "name": "to",
          "type": "address"
        },
        {
          "internalType": "uint256",
          "name": "tokenId",
          "type": "uint256"
        },
        {
          "internalType": "bytes",
          "name": "_data",
          "type": "bytes"
        }
      ],
      "name": "safeTransferFrom",
      "outputs": [],
      "stateMutability": "nonpayable",
      "type": "function"
    },
    {
      "inputs": [
        {
          "internalType": "address",
          "name": "operator",
          "type": "address"
        },
        {
          "internalType": "bool",
          "name": "approved",
          "type": "bool"
        }
      ],
      "name": "setApprovalForAll",
      "outputs": [],
      "stateMutability": "nonpayable",
      "type": "function"
    },
    {
      "inputs": [
        {
          "internalType": "bytes4",
          "name": "interfaceId",
          "type": "bytes4"
        }
      ],
      "name": "supportsInterface",
      "outputs": [
        {
          "internalType": "bool",
          "name": "",
          "type": "bool"
        }
      ],
      "stateMutability": "view",
      "type": "function",
      "constant": true
    },
    {
      "inputs": [],
      "name": "symbol",
      "outputs": [
        {
          "internalType": "string",
          "name": "",
          "type": "string"
        }
      ],
      "stateMutability": "view",
      "type": "function",
      "constant": true
    },
    {
      "inputs": [],
      "name": "tokenIds",
      "outputs": [
        {
          "internalType": "uint256",
          "name": "_value",
          "type": "uint256"
        }
      ],
      "stateMutability": "view",
      "type": "function",
      "constant": true
    },
    {
      "inputs": [
        {
          "internalType": "address",
          "name": "from",
          "type": "address"
        },
        {
          "internalType": "address",
          "name": "to",
          "type": "address"
        },
        {
          "internalType": "uint256",
          "name": "tokenId",
          "type": "uint256"
        }
      ],
      "name": "transferFrom",
      "outputs": [],
      "stateMutability": "nonpayable",
      "type": "function"
    },
    {
      "inputs": [
        {
          "internalType": "address",
          "name": "reciever",
          "type": "address"
        },
        {
          "internalType": "string",
          "name": "_tokenURI",
          "type": "string"
        }
      ],
      "name": "mintNft",
      "outputs": [],
      "stateMutability": "nonpayable",
      "type": "function"
    },
    {
      "inputs": [
        {
          "internalType": "string",
          "name": "baseURIs",
          "type": "string"
        }
      ],
      "name": "_setbaseURI",
      "outputs": [],
      "stateMutability": "nonpayable",
      "type": "function"
    },
    {
      "inputs": [
        {
          "internalType": "uint256",
          "name": "id",
          "type": "uint256"
        }
      ],
      "name": "tokenURI",
      "outputs": [
        {
          "internalType": "string",
          "name": "",
          "type": "string"
        }
      ],
      "stateMutability": "view",
      "type": "function",
      "constant": true
    },
    {
      "inputs": [
        {
          "internalType": "address",
          "name": "_owner",
          "type": "address"
        }
      ],
      "name": "tokensofOwner",
      "outputs": [
        {
          "internalType": "uint256[]",
          "name": "",
          "type": "uint256[]"
        }
      ],
      "stateMutability": "view",
      "type": "function",
      "constant": true
    }
  ],
  "bytecode": "0x60806040523480156200001157600080fd5b506040516200311d3803806200311d8339818101604052810190620000379190620001a3565b818181600090805190602001906200005192919062000075565b5080600190805190602001906200006a92919062000075565b5050505050620003ac565b8280546200008390620002bd565b90600052602060002090601f016020900481019282620000a75760008555620000f3565b82601f10620000c257805160ff1916838001178555620000f3565b82800160010185558215620000f3579182015b82811115620000f2578251825591602001919060010190620000d5565b5b50905062000102919062000106565b5090565b5b808211156200012157600081600090555060010162000107565b5090565b60006200013c620001368462000251565b62000228565b9050828152602081018484840111156200015b576200015a6200038c565b5b6200016884828562000287565b509392505050565b600082601f83011262000188576200018762000387565b5b81516200019a84826020860162000125565b91505092915050565b60008060408385031215620001bd57620001bc62000396565b5b600083015167ffffffffffffffff811115620001de57620001dd62000391565b5b620001ec8582860162000170565b925050602083015167ffffffffffffffff81111562000210576200020f62000391565b5b6200021e8582860162000170565b9150509250929050565b60006200023462000247565b9050620002428282620002f3565b919050565b6000604051905090565b600067ffffffffffffffff8211156200026f576200026e62000358565b5b6200027a826200039b565b9050602081019050919050565b60005b83811015620002a75780820151818401526020810190506200028a565b83811115620002b7576000848401525b50505050565b60006002820490506001821680620002d657607f821691505b60208210811415620002ed57620002ec62000329565b5b50919050565b620002fe826200039b565b810181811067ffffffffffffffff8211171562000320576200031f62000358565b5b80604052505050565b7f4e487b7100000000000000000000000000000000000000000000000000000000600052602260045260246000fd5b7f4e487b7100000000000000000000000000000000000000000000000000000000600052604160045260246000fd5b600080fd5b600080fd5b600080fd5b600080fd5b6000601f19601f8301169050919050565b612d6180620003bc6000396000f3fe608060405234801561001057600080fd5b506004361061010b5760003560e01c80634985fb5b116100a257806395d89b411161007157806395d89b41146102c8578063a22cb465146102e6578063b88d4fde14610302578063c87b56dd1461031e578063e985e9c51461034e5761010b565b80634985fb5b1461022e5780636352211e1461024a57806370a082311461027a578063714cff56146102aa5761010b565b806311f87b19116100de57806311f87b19146101aa57806323b872dd146101c657806339e237f0146101e257806342842e0e146102125761010b565b806301ffc9a71461011057806306fdde0314610140578063081812fc1461015e578063095ea7b31461018e575b600080fd5b61012a60048036038101906101259190611d4b565b61037e565b6040516101379190612253565b60405180910390f35b610148610460565b604051610155919061226e565b60405180910390f35b61017860048036038101906101739190611dee565b6104f2565b60405161018591906121a1565b60405180910390f35b6101a860048036038101906101a39190611d0b565b610577565b005b6101c460048036038101906101bf9190611caf565b61068f565b005b6101e060048036038101906101db9190611b99565b6106f9565b005b6101fc60048036038101906101f79190611b2c565b610759565b6040516102099190612231565b60405180910390f35b61022c60048036038101906102279190611b99565b61085a565b005b61024860048036038101906102439190611da5565b61087a565b005b610264600480360381019061025f9190611dee565b610894565b60405161027191906121a1565b60405180910390f35b610294600480360381019061028f9190611b2c565b610946565b6040516102a19190612470565b60405180910390f35b6102b26109fe565b6040516102bf9190612470565b60405180910390f35b6102d0610a0a565b6040516102dd919061226e565b60405180910390f35b61030060048036038101906102fb9190611c6f565b610a9c565b005b61031c60048036038101906103179190611bec565b610c1d565b005b61033860048036038101906103339190611dee565b610c7f565b604051610345919061226e565b60405180910390f35b61036860048036038101906103639190611b59565b610df2565b6040516103759190612253565b60405180910390f35b60007f80ac58cd000000000000000000000000000000000000000000000000000000007bffffffffffffffffffffffffffffffffffffffffffffffffffffffff1916827bffffffffffffffffffffffffffffffffffffffffffffffffffffffff1916148061044957507f5b5e139f000000000000000000000000000000000000000000000000000000007bffffffffffffffffffffffffffffffffffffffffffffffffffffffff1916827bffffffffffffffffffffffffffffffffffffffffffffffffffffffff1916145b80610459575061045882610e86565b5b9050919050565b60606000805461046f906126ff565b80601f016020809104026020016040519081016040528092919081815260200182805461049b906126ff565b80156104e85780601f106104bd576101008083540402835291602001916104e8565b820191906000526020600020905b8154815290600101906020018083116104cb57829003601f168201915b5050505050905090565b60006104fd82610ef0565b61053c576040517f08c379a0000000000000000000000000000000000000000000000000000000008152600401610533906123f0565b60405180910390fd5b6004600083815260200190815260200160002060009054906101000a900473ffffffffffffffffffffffffffffffffffffffff169050919050565b600061058282610894565b90508073ffffffffffffffffffffffffffffffffffffffff168373ffffffffffffffffffffffffffffffffffffffff1614156105f3576040517f08c379a00000000000000000000000000000000000000000000000000000000081526004016105ea90612430565b60405180910390fd5b8073ffffffffffffffffffffffffffffffffffffffff16610612610f5c565b73ffffffffffffffffffffffffffffffffffffffff16148061064157506106408161063b610f5c565b610df2565b5b610680576040517f08c379a000000000000000000000000000000000000000000000000000000000815260040161067790612350565b60405180910390fd5b61068a8383610f64565b505050565b600061069b600661101d565b90506106a7838261102b565b6106b181836111f9565b6106bb600661126d565b7febddff399c2639d52aac2b426c49acb783ddd9ed4409880c784f3bd7f055859183826040516106ec929190612208565b60405180910390a1505050565b61070a610704610f5c565b82611283565b610749576040517f08c379a000000000000000000000000000000000000000000000000000000000815260040161074090612450565b60405180910390fd5b610754838383611361565b505050565b60606000610767600661101d565b9050600061077484610946565b905060008167ffffffffffffffff81111561079257610791612898565b5b6040519080825280602002602001820160405280156107c05781602001602082028036833780820191505090505b5090506000805b8481101561084d578673ffffffffffffffffffffffffffffffffffffffff166107ef82610894565b73ffffffffffffffffffffffffffffffffffffffff16141561083a578083838151811061081f5761081e612869565b5b602002602001018181525050818061083690612762565b9250505b808061084590612762565b9150506107c7565b5081945050505050919050565b61087583838360405180602001604052806000815250610c1d565b505050565b8060089080519060200190610890929190611940565b5050565b6000806002600084815260200190815260200160002060009054906101000a900473ffffffffffffffffffffffffffffffffffffffff169050600073ffffffffffffffffffffffffffffffffffffffff168173ffffffffffffffffffffffffffffffffffffffff16141561093d576040517f08c379a000000000000000000000000000000000000000000000000000000000815260040161093490612390565b60405180910390fd5b80915050919050565b60008073ffffffffffffffffffffffffffffffffffffffff168273ffffffffffffffffffffffffffffffffffffffff1614156109b7576040517f08c379a00000000000000000000000000000000000000000000000000000000081526004016109ae90612370565b60405180910390fd5b600360008373ffffffffffffffffffffffffffffffffffffffff1673ffffffffffffffffffffffffffffffffffffffff168152602001908152602001600020549050919050565b60068060000154905081565b606060018054610a19906126ff565b80601f0160208091040260200160405190810160405280929190818152602001828054610a45906126ff565b8015610a925780601f10610a6757610100808354040283529160200191610a92565b820191906000526020600020905b815481529060010190602001808311610a7557829003601f168201915b5050505050905090565b610aa4610f5c565b73ffffffffffffffffffffffffffffffffffffffff168273ffffffffffffffffffffffffffffffffffffffff161415610b12576040517f08c379a0000000000000000000000000000000000000000000000000000000008152600401610b0990612310565b60405180910390fd5b8060056000610b1f610f5c565b73ffffffffffffffffffffffffffffffffffffffff1673ffffffffffffffffffffffffffffffffffffffff16815260200190815260200160002060008473ffffffffffffffffffffffffffffffffffffffff1673ffffffffffffffffffffffffffffffffffffffff16815260200190815260200160002060006101000a81548160ff0219169083151502179055508173ffffffffffffffffffffffffffffffffffffffff16610bcc610f5c565b73ffffffffffffffffffffffffffffffffffffffff167f17307eab39ab6107e8899845ad3d59bd9653f200f220920489ca2b5937696c3183604051610c119190612253565b60405180910390a35050565b610c2e610c28610f5c565b83611283565b610c6d576040517f08c379a0000000000000000000000000000000000000000000000000000000008152600401610c6490612450565b60405180910390fd5b610c79848484846115bd565b50505050565b6060610c8a82610ef0565b610cc9576040517f08c379a0000000000000000000000000000000000000000000000000000000008152600401610cc090612290565b60405180910390fd5b6000600760008481526020019081526020016000208054610ce9906126ff565b80601f0160208091040260200160405190810160405280929190818152602001828054610d15906126ff565b8015610d625780601f10610d3757610100808354040283529160200191610d62565b820191906000526020600020905b815481529060010190602001808311610d4557829003601f168201915b505050505090506000610d73611619565b9050600081511415610d89578192505050610ded565b600082511115610dbe578082604051602001610da692919061217d565b60405160208183030381529060405292505050610ded565b80610dc885611630565b604051602001610dd992919061217d565b604051602081830303815290604052925050505b919050565b6000600560008473ffffffffffffffffffffffffffffffffffffffff1673ffffffffffffffffffffffffffffffffffffffff16815260200190815260200160002060008373ffffffffffffffffffffffffffffffffffffffff1673ffffffffffffffffffffffffffffffffffffffff16815260200190815260200160002060009054906101000a900460ff16905092915050565b60007f01ffc9a7000000000000000000000000000000000000000000000000000000007bffffffffffffffffffffffffffffffffffffffffffffffffffffffff1916827bffffffffffffffffffffffffffffffffffffffffffffffffffffffff1916149050919050565b60008073ffffffffffffffffffffffffffffffffffffffff166002600084815260200190815260200160002060009054906101000a900473ffffffffffffffffffffffffffffffffffffffff1673ffffffffffffffffffffffffffffffffffffffff1614159050919050565b600033905090565b816004600083815260200190815260200160002060006101000a81548173ffffffffffffffffffffffffffffffffffffffff021916908373ffffffffffffffffffffffffffffffffffffffff160217905550808273ffffffffffffffffffffffffffffffffffffffff16610fd783610894565b73ffffffffffffffffffffffffffffffffffffffff167f8c5be1e5ebec7d5bd14f71427d1e84f3dd0314c0f7b2291e5b200ac8c7c3b92560405160405180910390a45050565b600081600001549050919050565b600073ffffffffffffffffffffffffffffffffffffffff168273ffffffffffffffffffffffffffffffffffffffff16141561109b576040517f08c379a0000000000000000000000000000000000000000000000000000000008152600401611092906123d0565b60405180910390fd5b6110a481610ef0565b156110e4576040517f08c379a00000000000000000000000000000000000000000000000000000000081526004016110db906122d0565b60405180910390fd5b6110f060008383611791565b6001600360008473ffffffffffffffffffffffffffffffffffffffff1673ffffffffffffffffffffffffffffffffffffffff1681526020019081526020016000206000828254611140919061258e565b92505081905550816002600083815260200190815260200160002060006101000a81548173ffffffffffffffffffffffffffffffffffffffff021916908373ffffffffffffffffffffffffffffffffffffffff160217905550808273ffffffffffffffffffffffffffffffffffffffff16600073ffffffffffffffffffffffffffffffffffffffff167fddf252ad1be2c89b69c2b068fc378daa952ba7f163c4a11628f55a4df523b3ef60405160405180910390a45050565b61120282610ef0565b611241576040517f08c379a0000000000000000000000000000000000000000000000000000000008152600401611238906123b0565b60405180910390fd5b80600760008481526020019081526020016000209080519060200190611268929190611940565b505050565b6001816000016000828254019250508190555050565b600061128e82610ef0565b6112cd576040517f08c379a00000000000000000000000000000000000000000000000000000000081526004016112c490612330565b60405180910390fd5b60006112d883610894565b90508073ffffffffffffffffffffffffffffffffffffffff168473ffffffffffffffffffffffffffffffffffffffff16148061134757508373ffffffffffffffffffffffffffffffffffffffff1661132f846104f2565b73ffffffffffffffffffffffffffffffffffffffff16145b8061135857506113578185610df2565b5b91505092915050565b8273ffffffffffffffffffffffffffffffffffffffff1661138182610894565b73ffffffffffffffffffffffffffffffffffffffff16146113d7576040517f08c379a00000000000000000000000000000000000000000000000000000000081526004016113ce90612410565b60405180910390fd5b600073ffffffffffffffffffffffffffffffffffffffff168273ffffffffffffffffffffffffffffffffffffffff161415611447576040517f08c379a000000000000000000000000000000000000000000000000000000000815260040161143e906122f0565b60405180910390fd5b611452838383611791565b61145d600082610f64565b6001600360008573ffffffffffffffffffffffffffffffffffffffff1673ffffffffffffffffffffffffffffffffffffffff16815260200190815260200160002060008282546114ad9190612615565b925050819055506001600360008473ffffffffffffffffffffffffffffffffffffffff1673ffffffffffffffffffffffffffffffffffffffff1681526020019081526020016000206000828254611504919061258e565b92505081905550816002600083815260200190815260200160002060006101000a81548173ffffffffffffffffffffffffffffffffffffffff021916908373ffffffffffffffffffffffffffffffffffffffff160217905550808273ffffffffffffffffffffffffffffffffffffffff168473ffffffffffffffffffffffffffffffffffffffff167fddf252ad1be2c89b69c2b068fc378daa952ba7f163c4a11628f55a4df523b3ef60405160405180910390a4505050565b6115c8848484611361565b6115d484848484611796565b611613576040517f08c379a000000000000000000000000000000000000000000000000000000000815260040161160a906122b0565b60405180910390fd5b50505050565b606060405180602001604052806000815250905090565b60606000821415611678576040518060400160405280600181526020017f3000000000000000000000000000000000000000000000000000000000000000815250905061178c565b600082905060005b600082146116aa57808061169390612762565b915050600a826116a391906125e4565b9150611680565b60008167ffffffffffffffff8111156116c6576116c5612898565b5b6040519080825280601f01601f1916602001820160405280156116f85781602001600182028036833780820191505090505b5090505b60008514611785576001826117119190612615565b9150600a8561172091906127ab565b603061172c919061258e565b60f81b81838151811061174257611741612869565b5b60200101907effffffffffffffffffffffffffffffffffffffffffffffffffffffffffffff1916908160001a905350600a8561177e91906125e4565b94506116fc565b8093505050505b919050565b505050565b60006117b78473ffffffffffffffffffffffffffffffffffffffff1661192d565b15611920578373ffffffffffffffffffffffffffffffffffffffff1663150b7a026117e0610f5c565b8786866040518563ffffffff1660e01b815260040161180294939291906121bc565b602060405180830381600087803b15801561181c57600080fd5b505af192505050801561184d57506040513d601f19601f8201168201806040525081019061184a9190611d78565b60015b6118d0573d806000811461187d576040519150601f19603f3d011682016040523d82523d6000602084013e611882565b606091505b506000815114156118c8576040517f08c379a00000000000000000000000000000000000000000000000000000000081526004016118bf906122b0565b60405180910390fd5b805181602001fd5b63150b7a0260e01b7bffffffffffffffffffffffffffffffffffffffffffffffffffffffff1916817bffffffffffffffffffffffffffffffffffffffffffffffffffffffff191614915050611925565b600190505b949350505050565b600080823b905060008111915050919050565b82805461194c906126ff565b90600052602060002090601f01602090048101928261196e57600085556119b5565b82601f1061198757805160ff19168380011785556119b5565b828001600101855582156119b5579182015b828111156119b4578251825591602001919060010190611999565b5b5090506119c291906119c6565b5090565b5b808211156119df5760008160009055506001016119c7565b5090565b60006119f66119f1846124b0565b61248b565b905082815260208101848484011115611a1257611a116128cc565b5b611a1d8482856126bd565b509392505050565b6000611a38611a33846124e1565b61248b565b905082815260208101848484011115611a5457611a536128cc565b5b611a5f8482856126bd565b509392505050565b600081359050611a7681612ccf565b92915050565b600081359050611a8b81612ce6565b92915050565b600081359050611aa081612cfd565b92915050565b600081519050611ab581612cfd565b92915050565b600082601f830112611ad057611acf6128c7565b5b8135611ae08482602086016119e3565b91505092915050565b600082601f830112611afe57611afd6128c7565b5b8135611b0e848260208601611a25565b91505092915050565b600081359050611b2681612d14565b92915050565b600060208284031215611b4257611b416128d6565b5b6000611b5084828501611a67565b91505092915050565b60008060408385031215611b7057611b6f6128d6565b5b6000611b7e85828601611a67565b9250506020611b8f85828601611a67565b9150509250929050565b600080600060608486031215611bb257611bb16128d6565b5b6000611bc086828701611a67565b9350506020611bd186828701611a67565b9250506040611be286828701611b17565b9150509250925092565b60008060008060808587031215611c0657611c056128d6565b5b6000611c1487828801611a67565b9450506020611c2587828801611a67565b9350506040611c3687828801611b17565b925050606085013567ffffffffffffffff811115611c5757611c566128d1565b5b611c6387828801611abb565b91505092959194509250565b60008060408385031215611c8657611c856128d6565b5b6000611c9485828601611a67565b9250506020611ca585828601611a7c565b9150509250929050565b60008060408385031215611cc657611cc56128d6565b5b6000611cd485828601611a67565b925050602083013567ffffffffffffffff811115611cf557611cf46128d1565b5b611d0185828601611ae9565b9150509250929050565b60008060408385031215611d2257611d216128d6565b5b6000611d3085828601611a67565b9250506020611d4185828601611b17565b9150509250929050565b600060208284031215611d6157611d606128d6565b5b6000611d6f84828501611a91565b91505092915050565b600060208284031215611d8e57611d8d6128d6565b5b6000611d9c84828501611aa6565b91505092915050565b600060208284031215611dbb57611dba6128d6565b5b600082013567ffffffffffffffff811115611dd957611dd86128d1565b5b611de584828501611ae9565b91505092915050565b600060208284031215611e0457611e036128d6565b5b6000611e1284828501611b17565b91505092915050565b6000611e27838361215f565b60208301905092915050565b611e3c81612649565b82525050565b6000611e4d82612522565b611e578185612550565b9350611e6283612512565b8060005b83811015611e93578151611e7a8882611e1b565b9750611e8583612543565b925050600181019050611e66565b5085935050505092915050565b611ea98161265b565b82525050565b6000611eba8261252d565b611ec48185612561565b9350611ed48185602086016126cc565b611edd816128db565b840191505092915050565b6000611ef382612538565b611efd8185612572565b9350611f0d8185602086016126cc565b611f16816128db565b840191505092915050565b6000611f2c82612538565b611f368185612583565b9350611f468185602086016126cc565b80840191505092915050565b6000611f5f601f83612572565b9150611f6a826128ec565b602082019050919050565b6000611f82603283612572565b9150611f8d82612915565b604082019050919050565b6000611fa5601c83612572565b9150611fb082612964565b602082019050919050565b6000611fc8602483612572565b9150611fd38261298d565b604082019050919050565b6000611feb601983612572565b9150611ff6826129dc565b602082019050919050565b600061200e602c83612572565b915061201982612a05565b604082019050919050565b6000612031603883612572565b915061203c82612a54565b604082019050919050565b6000612054602a83612572565b915061205f82612aa3565b604082019050919050565b6000612077602983612572565b915061208282612af2565b604082019050919050565b600061209a601883612572565b91506120a582612b41565b602082019050919050565b60006120bd602083612572565b91506120c882612b6a565b602082019050919050565b60006120e0602c83612572565b91506120eb82612b93565b604082019050919050565b6000612103602983612572565b915061210e82612be2565b604082019050919050565b6000612126602183612572565b915061213182612c31565b604082019050919050565b6000612149603183612572565b915061215482612c80565b604082019050919050565b612168816126b3565b82525050565b612177816126b3565b82525050565b60006121898285611f21565b91506121958284611f21565b91508190509392505050565b60006020820190506121b66000830184611e33565b92915050565b60006080820190506121d16000830187611e33565b6121de6020830186611e33565b6121eb604083018561216e565b81810360608301526121fd8184611eaf565b905095945050505050565b600060408201905061221d6000830185611e33565b61222a602083018461216e565b9392505050565b6000602082019050818103600083015261224b8184611e42565b905092915050565b60006020820190506122686000830184611ea0565b92915050565b600060208201905081810360008301526122888184611ee8565b905092915050565b600060208201905081810360008301526122a981611f52565b9050919050565b600060208201905081810360008301526122c981611f75565b9050919050565b600060208201905081810360008301526122e981611f98565b9050919050565b6000602082019050818103600083015261230981611fbb565b9050919050565b6000602082019050818103600083015261232981611fde565b9050919050565b6000602082019050818103600083015261234981612001565b9050919050565b6000602082019050818103600083015261236981612024565b9050919050565b6000602082019050818103600083015261238981612047565b9050919050565b600060208201905081810360008301526123a98161206a565b9050919050565b600060208201905081810360008301526123c98161208d565b9050919050565b600060208201905081810360008301526123e9816120b0565b9050919050565b60006020820190508181036000830152612409816120d3565b9050919050565b60006020820190508181036000830152612429816120f6565b9050919050565b6000602082019050818103600083015261244981612119565b9050919050565b600060208201905081810360008301526124698161213c565b9050919050565b6000602082019050612485600083018461216e565b92915050565b60006124956124a6565b90506124a18282612731565b919050565b6000604051905090565b600067ffffffffffffffff8211156124cb576124ca612898565b5b6124d4826128db565b9050602081019050919050565b600067ffffffffffffffff8211156124fc576124fb612898565b5b612505826128db565b9050602081019050919050565b6000819050602082019050919050565b600081519050919050565b600081519050919050565b600081519050919050565b6000602082019050919050565b600082825260208201905092915050565b600082825260208201905092915050565b600082825260208201905092915050565b600081905092915050565b6000612599826126b3565b91506125a4836126b3565b9250827fffffffffffffffffffffffffffffffffffffffffffffffffffffffffffffffff038211156125d9576125d86127dc565b5b828201905092915050565b60006125ef826126b3565b91506125fa836126b3565b92508261260a5761260961280b565b5b828204905092915050565b6000612620826126b3565b915061262b836126b3565b92508282101561263e5761263d6127dc565b5b828203905092915050565b600061265482612693565b9050919050565b60008115159050919050565b60007fffffffff0000000000000000000000000000000000000000000000000000000082169050919050565b600073ffffffffffffffffffffffffffffffffffffffff82169050919050565b6000819050919050565b82818337600083830152505050565b60005b838110156126ea5780820151818401526020810190506126cf565b838111156126f9576000848401525b50505050565b6000600282049050600182168061271757607f821691505b6020821081141561272b5761272a61283a565b5b50919050565b61273a826128db565b810181811067ffffffffffffffff8211171561275957612758612898565b5b80604052505050565b600061276d826126b3565b91507fffffffffffffffffffffffffffffffffffffffffffffffffffffffffffffffff8214156127a05761279f6127dc565b5b600182019050919050565b60006127b6826126b3565b91506127c1836126b3565b9250826127d1576127d061280b565b5b828206905092915050565b7f4e487b7100000000000000000000000000000000000000000000000000000000600052601160045260246000fd5b7f4e487b7100000000000000000000000000000000000000000000000000000000600052601260045260246000fd5b7f4e487b7100000000000000000000000000000000000000000000000000000000600052602260045260246000fd5b7f4e487b7100000000000000000000000000000000000000000000000000000000600052603260045260246000fd5b7f4e487b7100000000000000000000000000000000000000000000000000000000600052604160045260246000fd5b600080fd5b600080fd5b600080fd5b600080fd5b6000601f19601f8301169050919050565b7f55524920717565727920666f72206e6f6e6578697374656e7420746f6b656e00600082015250565b7f4552433732313a207472616e7366657220746f206e6f6e20455243373231526560008201527f63656976657220696d706c656d656e7465720000000000000000000000000000602082015250565b7f4552433732313a20746f6b656e20616c7265616479206d696e74656400000000600082015250565b7f4552433732313a207472616e7366657220746f20746865207a65726f2061646460008201527f7265737300000000000000000000000000000000000000000000000000000000602082015250565b7f4552433732313a20617070726f766520746f2063616c6c657200000000000000600082015250565b7f4552433732313a206f70657261746f7220717565727920666f72206e6f6e657860008201527f697374656e7420746f6b656e0000000000000000000000000000000000000000602082015250565b7f4552433732313a20617070726f76652063616c6c6572206973206e6f74206f7760008201527f6e6572206e6f7220617070726f76656420666f7220616c6c0000000000000000602082015250565b7f4552433732313a2062616c616e636520717565727920666f7220746865207a6560008201527f726f206164647265737300000000000000000000000000000000000000000000602082015250565b7f4552433732313a206f776e657220717565727920666f72206e6f6e657869737460008201527f656e7420746f6b656e0000000000000000000000000000000000000000000000602082015250565b7f555249206f66206e6f6e6578697374656e7420746f6b656e0000000000000000600082015250565b7f4552433732313a206d696e7420746f20746865207a65726f2061646472657373600082015250565b7f4552433732313a20617070726f76656420717565727920666f72206e6f6e657860008201527f697374656e7420746f6b656e0000000000000000000000000000000000000000602082015250565b7f4552433732313a207472616e73666572206f6620746f6b656e2074686174206960008201527f73206e6f74206f776e0000000000000000000000000000000000000000000000602082015250565b7f4552433732313a20617070726f76616c20746f2063757272656e74206f776e6560008201527f7200000000000000000000000000000000000000000000000000000000000000602082015250565b7f4552433732313a207472616e736665722063616c6c6572206973206e6f74206f60008201527f776e6572206e6f7220617070726f766564000000000000000000000000000000602082015250565b612cd881612649565b8114612ce357600080fd5b50565b612cef8161265b565b8114612cfa57600080fd5b50565b612d0681612667565b8114612d1157600080fd5b50565b612d1d816126b3565b8114612d2857600080fd5b5056fea26469706673582212201dc91c2970e269329a22962e93bc2631fdc5e3eee69fde115db3e1fefbe606aa64736f6c63430008060033",
  "immutableReferences": {},
  "source": "//SPDX-License-Identifier:MIT\n\npragma solidity ^0.8.4;\n \nimport \"@openzeppelin/contracts/token/ERC721/ERC721.sol\";\nimport \"@openzeppelin/contracts/utils/Counters.sol\";\n contract Token is ERC721{\n     using Counters for Counters.Counter;\n     using Strings for uint256;\n     Counters.Counter public tokenIds;\n\n     mapping(uint256 =>string) _tokenURIs;\n     string private _baseURIs;\n\n     \n     constructor(string memory _name, string memory _symbol)   ERC721(_name, _symbol){\n     }\n     \n     event NFTminted(address owner, uint256 id);\n    \n    \n     //mint the collectibles\n     function mintNft(address reciever, string memory _tokenURI ) external {\n        uint256 id = tokenIds.current();\n        _mint(reciever,id);\n        _setTokenURI(id,_tokenURI);\n        tokenIds.increment();\n       emit  NFTminted(reciever,id);\n         \n     }\n     \n    //set the URI of collectibles\n     function _setTokenURI(uint256 id,string memory _tokenURI)internal {\n         require(_exists(id),\"URI of nonexistent token\");\n         _tokenURIs[id] = _tokenURI;\n     }\n\n     //set baseURI of collectibles\n    function _setbaseURI(string memory baseURIs) external {\n        _baseURIs = baseURIs;\n    }\n\n\n    function tokenURI(uint256 id) public view virtual override returns(string memory){\n        require(_exists(id),\"URI query for nonexistent token\");\n        string memory _tokenURI = _tokenURIs[id];\n        string memory base = _baseURI();\n        //return token URI if baseURI is not present\n        if(bytes(base).length==0){\n            return(_tokenURI);\n        }\n        //concatenate both base and token URI if both are present\n        if(bytes(_tokenURI).length>0){\n            return string(abi.encodePacked(base,_tokenURI));\n        }\n    \n        //concatenate baseURI with tokenId if tokenURI isnot present\n        return string (abi.encodePacked(base,id.toString()));\n        \n    }\n\n\n     //display the tokens belonging to the particular owner\n     function tokensofOwner(address _owner) external view  returns(uint256[] memory){\n         uint256 _total = tokenIds.current();\n         uint256 numTokens = balanceOf(_owner);\n         uint256[] memory owner_token  = new uint256[](numTokens);\n         uint256 resultindex =0;\n        for(uint256 i = 0; i<_total; i++){\n            if(ownerOf(i) == _owner)\n            {\n                owner_token[resultindex]=i;\n                resultindex ++;\n            }\n        }\n        return owner_token; \n     }\n     \n }",
  "sourcePath": "/home/anu/Blockchain/NFT-Market/contracts/Token.sol",
  "compiler": {
    "name": "solc",
    "version": "0.8.6+commit.11564f7e.Emscripten.clang"
  },
  "schemaVersion": "3.4.0",
  "updatedAt": "2021-08-02T03:34:38.366Z",
  "networkType": "ethereum",
  "devdoc": {
    "kind": "dev",
    "methods": {
      "approve(address,uint256)": {
        "details": "See {IERC721-approve}."
      },
      "balanceOf(address)": {
        "details": "See {IERC721-balanceOf}."
      },
      "getApproved(uint256)": {
        "details": "See {IERC721-getApproved}."
      },
      "isApprovedForAll(address,address)": {
        "details": "See {IERC721-isApprovedForAll}."
      },
      "name()": {
        "details": "See {IERC721Metadata-name}."
      },
      "ownerOf(uint256)": {
        "details": "See {IERC721-ownerOf}."
      },
      "safeTransferFrom(address,address,uint256)": {
        "details": "See {IERC721-safeTransferFrom}."
      },
      "safeTransferFrom(address,address,uint256,bytes)": {
        "details": "See {IERC721-safeTransferFrom}."
      },
      "setApprovalForAll(address,bool)": {
        "details": "See {IERC721-setApprovalForAll}."
      },
      "supportsInterface(bytes4)": {
        "details": "See {IERC165-supportsInterface}."
      },
      "symbol()": {
        "details": "See {IERC721Metadata-symbol}."
      },
      "transferFrom(address,address,uint256)": {
        "details": "See {IERC721-transferFrom}."
      }
    },
    "version": 1
  },
  "userdoc": {
    "kind": "user",
    "methods": {},
    "version": 1
  }
}