{
  "contractName": "Tokenmarket",
  "abi": [
    {
      "inputs": [
        {
          "internalType": "contract Token",
          "name": "_tokens",
          "type": "address"
        }
      ],
      "stateMutability": "nonpayable",
      "type": "constructor"
    },
    {
      "anonymous": false,
      "inputs": [
        {
          "indexed": false,
          "internalType": "uint256",
          "name": "tokenid",
          "type": "uint256"
        },
        {
          "indexed": false,
          "internalType": "uint256",
          "name": "price",
          "type": "uint256"
        },
        {
          "indexed": false,
          "internalType": "address",
          "name": "issuer",
          "type": "address"
        }
      ],
      "name": "listedforsale",
      "type": "event"
    },
    {
      "anonymous": false,
      "inputs": [
        {
          "indexed": false,
          "internalType": "uint256",
          "name": "id",
          "type": "uint256"
        },
        {
          "indexed": false,
          "internalType": "address",
          "name": "buyer",
          "type": "address"
        }
      ],
      "name": "tokensold",
      "type": "event"
    },
    {
      "inputs": [],
      "name": "tokens",
      "outputs": [
        {
          "internalType": "contract Token",
          "name": "",
          "type": "address"
        }
      ],
      "stateMutability": "view",
      "type": "function",
      "constant": true
    },
    {
      "inputs": [
        {
          "internalType": "uint256",
          "name": "price",
          "type": "uint256"
        },
        {
          "internalType": "uint256",
          "name": "tokenid",
          "type": "uint256"
        }
      ],
      "name": "listforsell",
      "outputs": [],
      "stateMutability": "nonpayable",
      "type": "function"
    },
    {
      "inputs": [
        {
          "internalType": "uint256",
          "name": "tokenid",
          "type": "uint256"
        }
      ],
      "name": "buytoken",
      "outputs": [],
      "stateMutability": "payable",
      "type": "function",
      "payable": true
    },
    {
      "inputs": [
        {
          "internalType": "uint256",
          "name": "id",
          "type": "uint256"
        }
      ],
      "name": "tokendetails",
      "outputs": [
        {
          "internalType": "enum Tokenmarket.states",
          "name": "state",
          "type": "uint8"
        },
        {
          "internalType": "uint256",
          "name": "price",
          "type": "uint256"
        }
      ],
      "stateMutability": "view",
      "type": "function",
      "constant": true
    },
    {
      "inputs": [
        {
          "internalType": "uint256",
          "name": "tokenid",
          "type": "uint256"
        }
      ],
      "name": "cancelsell",
      "outputs": [],
      "stateMutability": "nonpayable",
      "type": "function"
    }
  ],
  "bytecode": "0x60806040523480156200001157600080fd5b50604051620012fc380380620012fc833981810160405281019062000037919062000096565b80600260006101000a81548173ffffffffffffffffffffffffffffffffffffffff021916908373ffffffffffffffffffffffffffffffffffffffff160217905550506200012f565b600081519050620000908162000115565b92915050565b600060208284031215620000af57620000ae62000110565b5b6000620000bf848285016200007f565b91505092915050565b6000620000d582620000f0565b9050919050565b6000620000e982620000c8565b9050919050565b600073ffffffffffffffffffffffffffffffffffffffff82169050919050565b600080fd5b6200012081620000dc565b81146200012c57600080fd5b50565b6111bd806200013f6000396000f3fe60806040526004361061004a5760003560e01c806319bece1b1461004f5780631e19fde31461006b57806362e47869146100945780639d63848a146100d2578063dc7cb83e146100fd575b600080fd5b61006960048036038101906100649190610a88565b610126565b005b34801561007757600080fd5b50610092600480360381019061008d9190610a88565b610577565b005b3480156100a057600080fd5b506100bb60048036038101906100b69190610a88565b610754565b6040516100c9929190610caa565b60405180910390f35b3480156100de57600080fd5b506100e7610795565b6040516100f49190610c8f565b60405180910390f35b34801561010957600080fd5b50610124600480360381019061011f9190610ab5565b6107bb565b005b60046000828152602001908152602001600020548034101561017d576040517f08c379a000000000000000000000000000000000000000000000000000000000815260040161017490610db3565b60405180910390fd5b60046000838152602001908152602001600020548034111561025557600081346101a79190610e5f565b905033600160006101000a81548173ffffffffffffffffffffffffffffffffffffffff021916908373ffffffffffffffffffffffffffffffffffffffff160217905550600160009054906101000a900473ffffffffffffffffffffffffffffffffffffffff1673ffffffffffffffffffffffffffffffffffffffff166108fc829081150290604051600060405180830381858888f19350505050158015610252573d6000803e3d6000fd5b50505b6000600460008581526020019081526020016000205490506001808111156102805761027f610f7d565b5b6003600086815260200190815260200160002060009054906101000a900460ff1660018111156102b3576102b2610f7d565b5b146102f3576040517f08c379a00000000000000000000000000000000000000000000000000000000081526004016102ea90610d13565b60405180910390fd5b60008111610336576040517f08c379a000000000000000000000000000000000000000000000000000000000815260040161032d90610d53565b60405180910390fd5b600260009054906101000a900473ffffffffffffffffffffffffffffffffffffffff1673ffffffffffffffffffffffffffffffffffffffff16636352211e856040518263ffffffff1660e01b81526004016103919190610dd3565b60206040518083038186803b1580156103a957600080fd5b505afa1580156103bd573d6000803e3d6000fd5b505050506040513d601f19601f820116820180604052508101906103e19190610a5b565b6000806101000a81548173ffffffffffffffffffffffffffffffffffffffff021916908373ffffffffffffffffffffffffffffffffffffffff16021790555060008054906101000a900473ffffffffffffffffffffffffffffffffffffffff1673ffffffffffffffffffffffffffffffffffffffff166108fc829081150290604051600060405180830381858888f19350505050158015610486573d6000803e3d6000fd5b50600260009054906101000a900473ffffffffffffffffffffffffffffffffffffffff1673ffffffffffffffffffffffffffffffffffffffff166342842e0e60008054906101000a900473ffffffffffffffffffffffffffffffffffffffff1633876040518463ffffffff1660e01b815260040161050693929190610c58565b600060405180830381600087803b15801561052057600080fd5b505af1158015610534573d6000803e3d6000fd5b505050507f7c124f4fb190c49897f7e2042221720b74109cb98617716736b6f73dd8a7c1128433604051610569929190610dee565b60405180910390a150505050565b60018081111561058a57610589610f7d565b5b6003600083815260200190815260200160002060009054906101000a900460ff1660018111156105bd576105bc610f7d565b5b146105fd576040517f08c379a00000000000000000000000000000000000000000000000000000000081526004016105f490610cd3565b60405180910390fd5b600260009054906101000a900473ffffffffffffffffffffffffffffffffffffffff1673ffffffffffffffffffffffffffffffffffffffff16636352211e826040518263ffffffff1660e01b81526004016106589190610dd3565b60206040518083038186803b15801561067057600080fd5b505afa158015610684573d6000803e3d6000fd5b505050506040513d601f19601f820116820180604052508101906106a89190610a5b565b73ffffffffffffffffffffffffffffffffffffffff163373ffffffffffffffffffffffffffffffffffffffff1614610715576040517f08c379a000000000000000000000000000000000000000000000000000000000815260040161070c90610d93565b60405180910390fd5b60006003600083815260200190815260200160002060006101000a81548160ff0219169083600181111561074c5761074b610f7d565b5b021790555050565b6000806003600084815260200190815260200160002060009054906101000a900460ff16600460008581526020019081526020016000205491509150915091565b600260009054906101000a900473ffffffffffffffffffffffffffffffffffffffff1681565b60008214156107ff576040517f08c379a00000000000000000000000000000000000000000000000000000000081526004016107f690610d73565b60405180910390fd5b60018081111561081257610811610f7d565b5b6003600083815260200190815260200160002060009054906101000a900460ff16600181111561084557610844610f7d565b5b1415610886576040517f08c379a000000000000000000000000000000000000000000000000000000000815260040161087d90610d33565b60405180910390fd5b3073ffffffffffffffffffffffffffffffffffffffff16600260009054906101000a900473ffffffffffffffffffffffffffffffffffffffff1673ffffffffffffffffffffffffffffffffffffffff1663081812fc836040518263ffffffff1660e01b81526004016108f89190610dd3565b60206040518083038186803b15801561091057600080fd5b505afa158015610924573d6000803e3d6000fd5b505050506040513d601f19601f820116820180604052508101906109489190610a5b565b73ffffffffffffffffffffffffffffffffffffffff161461099e576040517f08c379a000000000000000000000000000000000000000000000000000000000815260040161099590610cf3565b60405180910390fd5b81600460008381526020019081526020016000208190555060016003600083815260200190815260200160002060006101000a81548160ff021916908360018111156109ed576109ec610f7d565b5b02179055507ff4920e38afe6b2064b2f00406725bc5812bbfe679c960a1f944e4070464ace20818330604051610a2593929190610e17565b60405180910390a15050565b600081519050610a4081611159565b92915050565b600081359050610a5581611170565b92915050565b600060208284031215610a7157610a70610fac565b5b6000610a7f84828501610a31565b91505092915050565b600060208284031215610a9e57610a9d610fac565b5b6000610aac84828501610a46565b91505092915050565b60008060408385031215610acc57610acb610fac565b5b6000610ada85828601610a46565b9250506020610aeb85828601610a46565b9150509250929050565b610afe81610ee2565b82525050565b610b0d81610e93565b82525050565b610b1c81610ef4565b82525050565b610b2b81610f18565b82525050565b6000610b3e601483610e4e565b9150610b4982610fb1565b602082019050919050565b6000610b61602a83610e4e565b9150610b6c82610fda565b604082019050919050565b6000610b84601483610e4e565b9150610b8f82611029565b602082019050919050565b6000610ba7601583610e4e565b9150610bb282611052565b602082019050919050565b6000610bca600c83610e4e565b9150610bd58261107b565b602082019050919050565b6000610bed601c83610e4e565b9150610bf8826110a4565b602082019050919050565b6000610c10602683610e4e565b9150610c1b826110cd565b604082019050919050565b6000610c33601483610e4e565b9150610c3e8261111c565b602082019050919050565b610c5281610ed8565b82525050565b6000606082019050610c6d6000830186610af5565b610c7a6020830185610b04565b610c876040830184610c49565b949350505050565b6000602082019050610ca46000830184610b13565b92915050565b6000604082019050610cbf6000830185610b22565b610ccc6020830184610c49565b9392505050565b60006020820190508181036000830152610cec81610b31565b9050919050565b60006020820190508181036000830152610d0c81610b54565b9050919050565b60006020820190508181036000830152610d2c81610b77565b9050919050565b60006020820190508181036000830152610d4c81610b9a565b9050919050565b60006020820190508181036000830152610d6c81610bbd565b9050919050565b60006020820190508181036000830152610d8c81610be0565b9050919050565b60006020820190508181036000830152610dac81610c03565b9050919050565b60006020820190508181036000830152610dcc81610c26565b9050919050565b6000602082019050610de86000830184610c49565b92915050565b6000604082019050610e036000830185610c49565b610e106020830184610b04565b9392505050565b6000606082019050610e2c6000830186610c49565b610e396020830185610c49565b610e466040830184610b04565b949350505050565b600082825260208201905092915050565b6000610e6a82610ed8565b9150610e7583610ed8565b925082821015610e8857610e87610f4e565b5b828203905092915050565b6000610e9e82610eb8565b9050919050565b6000819050610eb382611145565b919050565b600073ffffffffffffffffffffffffffffffffffffffff82169050919050565b6000819050919050565b6000610eed82610f2a565b9050919050565b6000610eff82610f06565b9050919050565b6000610f1182610eb8565b9050919050565b6000610f2382610ea5565b9050919050565b6000610f3582610f3c565b9050919050565b6000610f4782610eb8565b9050919050565b7f4e487b7100000000000000000000000000000000000000000000000000000000600052601160045260246000fd5b7f4e487b7100000000000000000000000000000000000000000000000000000000600052602160045260246000fd5b600080fd5b7f546f6b656e2069736e6f7420666f722073616c65000000000000000000000000600082015250565b7f436f6e7472616374206973206e6f7420617070726f76656420746f2073656c6c60008201527f2074686520746f6b656e00000000000000000000000000000000000000000000602082015250565b7f546f6b656e206973206e6f7420666f7273616c65000000000000000000000000600082015250565b7f546f6b656e20616c726561647920696e2073616c650000000000000000000000600082015250565b7f6e6f7420666f722073616c650000000000000000000000000000000000000000600082015250565b7f53656c6c696e672070726963652063616e6e6f74206265207a65726f00000000600082015250565b7f4f6e6c792020546f6b656e206f776e65722063616e2063616e63656c2074686560008201527f2073656c6c200000000000000000000000000000000000000000000000000000602082015250565b7f4e6f742073756666696369656e74207072696365000000000000000000000000600082015250565b6002811061115657611155610f7d565b5b50565b61116281610e93565b811461116d57600080fd5b50565b61117981610ed8565b811461118457600080fd5b5056fea26469706673582212204583005bb9646ec83259f981b9cc96975344f785b33a827e8cf154a5173a6c6964736f6c63430008060033",
  "immutableReferences": {},
  "source": "//SPDX-License-Identifier:MIT\n\npragma solidity ^0.8.4;\n\nimport \"./Token.sol\";\n\n\ncontract Tokenmarket{\n    \n    address  payable seller;\n    address  payable buyer;\n    Token public tokens;\n    \n    enum  states {\n        initial,\n        sale\n    }\n    \n    mapping(uint256 => states) forsale;//maps the tokenid with it's state\n    mapping(uint256 => uint256) sellingprice; // maps the tokenid with it's selling price as added by the owner\n    \n    constructor ( Token _tokens)  {\n         tokens = _tokens;\n    }\n     event listedforsale(uint256 tokenid, uint256 price , address issuer);\n     event tokensold(uint256 id , address buyer );\n\n     modifier paidenough(uint256 price){\n        require(msg.value >= price,\"Not sufficient price\");\n        \n        _;\n    }\n    modifier refundexcess(uint256 price)   {\n        if (msg.value > price)\n        {\n            uint256 return_value;\n            return_value = msg.value -price;\n            buyer = payable(msg.sender);\n            buyer.transfer(return_value);\n        }\n        _;\n    }\n\n     //to list the collectibles for sale by the owner ,contract(approved to sale token on behalf of owner)\n    function listforsell(uint256 price,uint256 tokenid) public{\n        require(price != 0,\"Selling price cannot be zero\");\n        require(forsale[tokenid] != states.sale,\"Token already in sale\");\n        require (tokens.getApproved(tokenid) == address(this),\"Contract is not approved to sell the token\");\n        sellingprice[tokenid] = price;\n        forsale[tokenid] = states.sale;\n        emit listedforsale(tokenid, price ,address(this));\n\n    }\n    //buy the collectibles paying sufficient price as indicated\n    function buytoken(uint256 tokenid) public  payable  paidenough (sellingprice[tokenid]) refundexcess(sellingprice[tokenid]){\n        \n        uint256 price = sellingprice[tokenid];\n        require(forsale[tokenid] == states.sale,\"Token is not forsale\");\n        require(price > 0, \"not for sale\");\n        \n        seller = payable(tokens.ownerOf(tokenid));\n        seller.transfer(price);\n       \n        tokens.safeTransferFrom(seller,msg.sender,tokenid);\n      emit   tokensold(tokenid, msg.sender);\n       \n    }\n    \n    //dispaly the details of the collectibles\n    function tokendetails(uint256 id) public  view returns(states state,uint256 price){\n        // address owner = tokens.ownerOf(id);\n        // string memory uri = tokens.tokenURI(id);\n        return(\n        forsale[id],\n        sellingprice[id]\n        );\n        \n    }\n    \n    //remove the token form the sale list\n    function cancelsell(uint256 tokenid) public {\n        require(forsale[tokenid] == states.sale,\"Token isnot for sale\");\n        require(msg.sender ==tokens.ownerOf(tokenid),\"Only  Token owner can cancel the sell \");\n        forsale[tokenid] = states.initial;\n    }\n    \n} \n",
  "sourcePath": "/home/anu/Blockchain/NFT-Market/contracts/Tokenmarket.sol",
  "compiler": {
    "name": "solc",
    "version": "0.8.6+commit.11564f7e.Emscripten.clang"
  },
  "schemaVersion": "3.4.0",
  "updatedAt": "2021-08-02T03:34:38.895Z",
  "networkType": "ethereum",
  "devdoc": {
    "kind": "dev",
    "methods": {},
    "version": 1
  },
  "userdoc": {
    "kind": "user",
    "methods": {},
    "version": 1
  }
}